:020000040000FA
:1000000000400020B5680100F1680100F3680100BC
:1000100000000000000000000000000000000000E0
:10002000000000000000000000000000F568010072
:100030000000000000000000F7680100F9680100FE
:10004000FB680100E1520100216D0100FB68010025
:10005000FB6801000000000089290000FB68010026
:10006000C92B0000FB6801004D290000FB6801005E
:10007000FB680100FB680100FB680100FB680100F0
:10008000FB6801007D720100FB680100FB68010054
:10009000FB68010065A2010041A20100112D0000D2
:1000A000212D0000FB68010000000000000000009E
:1000B0000000000000000000000000000000000040
:1000C000054B0648033310B51B1A062B03D9044B06
:1000D000002B00D0984710BD000100200001002037
:1000E000000000000648074910B5091A8910CB0F17
:1000F0005918491003D0044B002B00D0984710BD6D
:1001000000010020000100200000000010B5074C95
:100110002378002B09D1FFF7D3FF054B002B02D02A
:10012000044800E000BF0123237010BD000100203F
:1001300000000000C8EA0300094B10B5002B03D0F3
:100140000849094800E000BF08480368002B02D1B5
:10015000FFF7C8FF10BD064B002BF9D09847F7E713
:100160000000000004010020C8EA03000001002094
:1001700000000000144B002B00D1124B9D46402282
:1001800092029A1A924600218B460F461148124A53
:10019000121A22F08BFF0D4B002B00D098470C4B0E
:1001A000002B00D098470020002104000D000B48D0
:1001B00022F000F922F0DCFD200029002BF01FFFC7
:1001C00022F022F90000080000400020000000009A
:1001D0000000000000010020180A0020D5290200BC
:1001E00010B5102026F041FB0400034B08C029F095
:1001F00038FD200010BDC046E4F2020070B50D00CD
:10020000052826D81AF02CF905250D03141C080022
:1002100020E0081D29F057FE031E0F481AD00F4892
:1002200018E0081D2AF07FF901214000084311E081
:10023000FFF7D6FF291D0400043029F079FE06E0FF
:10024000FFF7CEFF291D0400043029F081FE2000B5
:1002500000E0002070BDC046482703008C27030043
:1002600070B5050083070CD1104B02689A4208D183
:10027000FFF7B6FF0400291D043029F04EFE2000D0
:1002800012E0280000F0DCFFC0231B06984205D1D5
:1002900080200021C00525F0B7FC05E0C317C01879
:1002A000584001234000184370BDC046E4F20200EC
:1002B00070B544006408051C211C201C1BF0E0F9EB
:1002C000002808D11149201C1AF0C2FA002808D0D1
:1002D0000F49104801E01049104805F06DFE12F07A
:1002E00040FB281C26F057FC002806D1281C1BF0D8
:1002F000DFF901244000204307E0FFF771FF04000D
:10030000291C043029F02CFD200070BDFFFF7F7FE9
:10031000E85C0300D8FB0200015D0300ACF60200BC
:1003200007B5C30701D540100DE0043001A910F056
:1003300043F9002801D0019805E00349034826F05D
:1003400084FE12F00EFB0EBD1A5D0300D8FB020006
:10035000F0B5060001208DB00C000092084007D0D7
:100360004B10022202A903A829F0BAFC03AD09E050
:1003700003230B4000D037E19C4A0968914200D02A
:1003800029E1251D009BDB0708D5009B02225B109D
:1003900002A903A829F0A4FC03AC1FE00323009AE0
:1003A0001A4208D10099914A09680191914202D1FB
:1003B000009B1C1D12E0009A1340022B00D00EE19E
:1003C0008B4B1340062B00D109E128002AF000F9DD
:1003D000009A011C300006F021FB05E1092E01D036
:1003E000162E16D1200029F06EFD00283DD12800E0
:1003F0002AF0EEF8051C20002AF0EAF8011C281C5F
:100400001AF0DAFC03239843013B1843794BC018D8
:10041000EAE0182E00D9BAE0FFF7E2FE070030004C
:100420001AF01EF86B716577770D11181EDB488E78
:10043000946B716577770D11181EDB488E00381D9F
:100440002200290050E0381D2200290029F053FE27
:100450003800C9E0381D2200290029F09EFFF7E787
:10046000200029F030FD002802D06349634857E09E
:1004700006A83E1D29F0F5FB23002A0006A930003E
:100480000FF038FF2A7823785340DB070ED506A8F3
:1004900029F019FD002809D1012109A8494229F0B4
:1004A00015FC09AA3100300029F0EAFD06A829F060
:1004B000E4FBCDE7200029F006FD0028D5D109A8EE
:1004C0003E1D29F0CEFB23002A00310009A80FF0C1
:1004D00011FF09A829F0D1FB2A7823785340DB07C4
:1004E000B6D522003100300029F0CAFDB0E7381D32
:1004F0002200290029F04CFEAAE7381D220029001D
:1005000029F0CAFEA4E7381D220029000FF07CFE66
:100510009EE70098FFF704FF021E05DA38493948C4
:1005200026F093FD12F01DFA381D2900032E01D08C
:10053000102E02D10FF0FAFD8AE729F040FD87E77F
:10054000381D2200290029F0ABFF81E7200029F0A7
:10055000BAFC002889D1FFF743FE3E1D009023001E
:100560002A00043031000FF0C5FE2A78237853406A
:10057000DB0704D522003100300029F081FD009B0B
:1005800009A9022009930A9703F010FB2CE021002F
:10059000280029F09DFC193E03000020042E23D8DA
:1005A000300019F05DFF0307130B0F001648002BF6
:1005B0001ADA0EE01448002B0BDC15E01248002B71
:1005C00012DC06E01048002B03DA0DE00E48002B89
:1005D0000AD10E4808E0180006E0002004E0009A66
:1005E0002100300004F010FB0DB0F0BDE4F2020079
:1005F000070080FF00008080475D030008FB0200C9
:10060000585D0300ACF602008C2703004827030066
:1006100010B54A68014927F0D3F910BD6D5D03009C
:1006200070B5150012680C008368002A09D1CC004F
:100630000621181D214311F0D5FA00281ED0436869
:100640001BE01A79180092070BD50D4A934215D179
:100650000C4E736C002B03D1012029F002F870645A
:10066000706C06216A68E4002143002A02D129F057
:100670003BF801E029F02EF800232B6070BDC04646
:10068000B8ED0200B8080020F8B50625C3001D43E8
:100690000700012229000C4811F0A4FA0600406866
:1006A000002810D10C3026F0E0F8084B040003605D
:1006B0004760012028F0D5FF2A00A0606E2129F0B4
:1006C00009F820007460F8BDDC080020A0E80200F2
:1006D00010B5032101480DF08DFD10BDD808002094
:1006E00010B50C000621C00001430122024811F0A0
:1006F00079FA446010BDC046DC08002073B50625B9
:10070000C3001D430600002229000F4811F06AFAB9
:10071000041E17D1020029000C4811F063FA041ED0
:1007200011D06A46082140680DF064FF009B002B41
:1007300008D000216A46080028F0FDFF61683000FB
:10074000FFF7CEFF606876BDDC080020DCE8020021
:10075000014B58687047C046B8080020014B186824
:100760007047C046B8080020F0B5194E87B033680E
:10077000050000200C00019328F073FF306000900A
:10078000206828F0C0FF019B07003360114E022D46
:1007900003D0A06800F06AFC0600210063680831FD
:1007A000A81E039303F002FA009B04900593002215
:1007B00003AB032130000DF09FFE074B04009F4266
:1007C00003D00100380028F0CAF9200007B0F0BDBE
:1007D000B80800208C29030078F10200F8B5032640
:1007E000050007003540022D15D10E4B0340062BA6
:1007F00011D0FF23DB05C418B443201C00211AF0DC
:1008000013F800280BD080231B06E018B043064BDA
:100810002843C01804E03800FFF722FD00E038004C
:10082000F8BDC046070080FF0000808010B50DF0C5
:100830005DFF040020000DF0A9FF002805D000F0A6
:100840003FFE0028F6D1024800E0024810BDC04635
:100850008C2703004827030010B50DF047FF040064
:1008600020000DF093FF002805D000F029FE00289D
:10087000F6D0024800E0024810BDC04648270300F9
:100880008C27030007B5044B019000226946022023
:1008900000930CF049FA0EBD0604000010B500F0FC
:1008A0006BFC034B002800D1024B180010BDC04662
:1008B000482703008C27030037B500F0C1FC01ABCB
:1008C0007F2802D8187001213CE021498209884222
:1008D0000AD8402149420A431A703F221040BF3AC9
:1008E0001043587042312DE01A49040B88420ED84B
:1008F000202149420C431C7080245F310A4064422D
:100900000840224320435A7098703C391AE012493B
:10091000884211D81025810C6D42294319703F215E
:10092000703D0C400A4008402C432A4328435C7029
:100930009A70D8703B3905E00849094826F085FBD4
:1009400012F00FF8012218000AF0CEFF3EBDC0469B
:10095000FF070000FFFF0000FFFF10007B5D0300AA
:10096000ACF6020010B5020002490A200DF050FF5B
:1009700010BDC046BE04000010B5020002490A20A6
:100980000DF046FF10BDC0463E050000F0B585B035
:10099000019202900C00002232490198039311F059
:1009A00021F90090002801D043680093029B012B9D
:1009B00003D000252E0001953CE0206800240DF0B6
:1009C00095FE2700029002980DF0E0FE051E17D05C
:1009D000009B2E00002B04D02900180028F09AFE5E
:1009E0000600002C09D03A00310003980DF010FFEA
:1009F0001D4B984201D025003E002C003700E2E755
:100A0000221E2BD11949019811F0ECF8002801D0D1
:100A1000426823E01649174826F017FB11F0A1FFA2
:100A2000009B002B0AD12768002E0DD12668019764
:100A300001350434029B9D42F2D10EE021680098FA
:100A400028F068FE0700EFE7019A390003980DF0DF
:100A5000DFFE054B9842EBD1E8E73200100005B00D
:100A6000F0BDC046D6060000482703001E05000062
:100A70009C5D0300ACF6020037B501A905000BF040
:100A8000E3FB1E4B04002B40062B05D0AB072AD1FD
:100A90001B4B2A689A4226D10199200028F0D9FEE2
:100AA0000190012822D1207843B2002B04DB0123DE
:100AB00020784000184320E07F23013418403F3B5A
:100AC000034202D098435B10FAE73F2223781900D3
:100AD0009143802904D18001134001341843F5E784
:100AE00025F0A1F809E0019B012BE0D0019A05490E
:100AF000054805F061FA11F034FF3EBD070080FFA4
:100B0000A4130300B55D03009CFB0200F0B51400C4
:100B100087B00290039100222349200011F062F86F
:100B2000002205002149200011F05CF80123040097
:100B3000049305931E4F002D07D068681D4B984203
:100B400003D004A90BF080FB07001B4E002C07D03C
:100B50006068184B984203D005A90BF075FB06009E
:100B60000024029B154D9C4212D0002C07D000237C
:100B7000049A019300933900280007F0B3FC03990D
:100B8000A3000022C958280000F08AFA0134E8E7DF
:100B90000023059A019300933100280007F0A2FC7E
:100BA000044807B0F0BDC046EE050000F6050000A1
:100BB000BDE0030078F102008365030088100300A4
:100BC0007FB50D4D0400A84213D00C4E0122010048
:100BD000300000F065FA0A49300026F020FE0423B8
:100BE0000293084B0394DB6902AA03210648019390
:100BF0009847280004B070BD78F102008810030007
:100C000083650300A0E80200E4E9020010B50400D7
:100C100086B06A4602A8102107F016F901222100C9
:100C2000684600F03DFA02A902480AF027FE06B025
:100C300010BDC046A413030070B50C68030020006B
:100C4000E2074AD4A20703D1244A2568954244D03A
:100C5000012B1FD9486800F0F3FA0600200000F0CD
:100C600053FB051C30001AF045FD011C1C481DF00B
:100C70004DFC011C041C281C1AF068FA1DF0F0F849
:100C8000211C1AF099F803239843013B1843154B94
:100C9000C01822E0200000F037FB051C1DF0E0F832
:100CA000061C1AF005FD311C0400281C1AF062FB1A
:100CB000FC218905051C19F0B1FD002801D0013483
:100CC00006E0BF21281C090619F0A8FD002801D064
:100CD00001239C43200024F0A6FF70BDE4F2020033
:100CE000000020410000808013B5040008000AF0D5
:100CF0001DFE6A46010020000DF07CFC009B0248AE
:100D0000002B00D1014816BD482703008C270300A3
:100D100037B50024022800D98C6848680D680AF0AD
:100D200005FE094B0100002C00D0084B28006A4644
:100D300098470098002805D00199002903D004F0B5
:100D4000EBF800E020003EBD55E60000F5E50000B0
:100D500070B50400080015000AF0E8FD2A00010043
:100D600020000DF09FFC014870BDC04678F10200E4
:100D700010B50DF0E3FC002804D1034826F058F923
:100D800011F0EFFD10BDC04658F9020030B50B0060
:100D900085B01400012805D90A490B4826F055F9F9
:100DA00011F0DFFD09480121C2680192019D002276
:100DB000A8472200039003A9012010F0EBFB039841
:100DC00005B030BDEF5D03009CFB0200382B030033
:100DD000F8B50E00002803D1294B04001D6821E05E
:100DE000086883070AD10368264A934203D124F096
:100DF0006BFF05000CE0244A934201D000F036F965
:100E0000856B002D04D0214B2A689A4200D0002522
:100E1000306800F02BF91E4BC26800249A4201D1C1
:100E2000346804340021080029F0FCFE0027060085
:100E3000002D09D10025002C16D11FE0EA68FB0027
:100E40009958002904D10137AB689F42F6D3F1E7E6
:100E50000429F8D0300010F039FBF4E7A268EB0069
:100E60009958002904D1013563689D42F6D305E005
:100E70000429F8D0300010F029FBF4E73000F8BD69
:100E8000B8080020A0E802008C2903002C240300ED
:100E9000C90F010070B504000D00104926F0BFFC19
:100EA00069680122200000F0FBF80D4E200031009F
:100EB00026F0B5FCA9680122200000F0F1F831000D
:100EC000200026F0ACFCE9680122200000F0E8F8E0
:100ED0000449200026F0A3FC70BDC0461A5E030042
:100EE000215E0300A35F030070B5060010200D0013
:100EF000140025F0BAFC034B466085600360C460B3
:100F000070BDC04634EE0200A3230021024A5B00FC
:100F10000248D1527047C046B808002078F102005C
:100F2000A3230121024A5B000248D1527047C04608
:100F3000B808002078F10200A323044A5B00D35ACA
:100F40000348002B00D103487047C046B808002072
:100F5000482703008C27030010B50EF075FA0148EE
:100F600010BDC04678F1020010B5040000F052F840
:100F7000074B0200A4331B680649074826F020FDF2
:100F800001F0C4FB012C01D101F0E0FB034810BDCE
:100F9000B8080020245E03008810030078F10200E6
:100FA00010B501F0C3F8014810BDC04678F1020049
:100FB00010B501F0B1F8014810BDC04678F102004B
:100FC00010B586B0040005AB04AA03A902A806F078
:100FD00015F8059B029A0193049B06490093064865
:100FE000039B26F0EDFC012C01D106F043F80348E9
:100FF00006B010BD395E03008810030078F10200CE
:10100000034B82B001AAA0331A6002B07047C046F9
:10101000B8080020034B82B0A0331B6801A8181A3F
:1010200002B07047B8080020014BA4331860704725
:10103000B808002010B50349034825F0FFFF11F060
:1010400090FCC04626090000E8F60200064B07B5F2
:101050001A00A033A4321B68126801A95B1A9A42D5
:1010600001D8FFF7E7FF07BDB8080020084BC2070B
:101070000BD4084A084B0240062A06D0032303403B
:10108000022B01D1054B00E0036818007047C046F1
:10109000E4F20200070080FFA41303006CFD0200CD
:1010A00070B50D0004001600FFF7D0FF2800FFF711
:1010B000DDFF8368002B04D0320029002000984710
:1010C00004E042680249200026F07AFC70BDC04668
:1010D000815E030010B50A0001000248FFF7E0FF3F
:1010E00010BDC04688100300F7B5050008000E00CB
:1010F00025F0AFFF00282BD001AA6946300005F08B
:1011000001F8009B002B23D01649280026F087FB0E
:10111000009C154BE71EE418A400002F18DB019A71
:10112000124913195B681259280026F049FC019BEB
:101130001B199A68002A04D10D49280026F06FFB7C
:1011400003E00C49280026F03BFC033F0C3CE4E79D
:10115000310028000222FFF7A3FF2800044926F0EF
:101160005EFBF7BD865E0300FDFFFF3FAA5E030046
:1011700083650300BF5E030010B50400FFF776FF30
:10118000054B0069984203D0431E9841C0B202E06B
:10119000200029F06AFC10BD5511010070B5050052
:1011A0000C0001208D4241D0214B9D4201D10020F5
:1011B0003CE09942FBD001231D4204D01942F6D1F4
:1011C0002B000D001C002A001A4B1A40062A05D0DD
:1011D000AA0711D1184A296891420DD12340062B44
:1011E00005D0A307E3D1144B22689A42DFD1210036
:1011F00028000AF0D9FF19E02340062BD7D0A30717
:1012000003D10D4B22689A42D1D02800FFF72EFF60
:101210008369002BCBD0220029001B20984700288F
:10122000C5D0064BC01A42424241D0B270BDC04642
:1012300078F10200070080FFA41303004827030091
:10124000104B10B5984219D00F4A0123904217D085
:10125000184201D0184114E0830706D10B4B0268F5
:101260009A4202D1FFF75CF80BE024F09AFD08499E
:101270000200084804F0A0FE11F073FB002000E01B
:10128000180010BD8C27030048270300E4F2020079
:10129000C85E03009CFB020010B5C30705D483079A
:1012A00006D1054B02689A4202D124F0F9FC01E014
:1012B000FFF7C6FF10BDC046E4F202000F4B70B549
:1012C0000D000124984202D100230B6012E00C4B68
:1012D000984201D10C600DE00300234001D0401082
:1012E00007E0820707D1074A0168914203D1FFF75F
:1012F00017F828602300180070BDC0468C27030033
:1013000048270300E4F20200184B10B5984228D099
:10131000174B984227D0C30703D540101AF0EAF9BB
:1013200023E00323184206D1124A0168914202D1F8
:1013300024F0BFFC19E00340022B09D10E4B0340FF
:10134000062B05D0FF23DB05C018032398430CE0D0
:1013500024F027FD09490200094804F02DFE11F090
:1013600000FB002001E0FE20800510BD8C2703005B
:1013700048270300E4F20200070080FFE05E03005C
:101380009CFB020010B583070CD103680A4CA342F2
:1013900002D125F0FAFA0EE0084CA34202D129F05E
:1013A00058FC08E024F0FDFC05490200054804F063
:1013B00003FE11F0D6FA10BDD4F10200382B030061
:1013C000FA5E03009CFB020013B50C0001A9FFF7B5
:1013D000D9FF019BA34206D022000349034804F031
:1013E000EBFD11F0BEFA13BD1D5F0300ACF6020069
:1013F000F7B505000C0017001E00D30702D55710E3
:10140000019710E001A91000FFF758FF00280AD14A
:1014100038006C6824F0C5FC220003001249134810
:1014200004F0CAFD1BE0019B002B08DA1B19019395
:10143000002E0AD0002B04DA0023019311E0002EC5
:1014400003D09C420DD201940BE0019B002B01DBE9
:101450009C4206D86A680649064804F0ADFD11F0C2
:1014600080FA0198FEBDC0464A5F03009CFB020063
:101470006E5F030008F8020010B50400830710D166
:101480000D4B02689A420CD10C4B0340062B03D142
:10149000C00825F088FF00E0806801234000184361
:1014A00008E02000FFF7E2FD4369181E02D021008A
:1014B0000120984710BDC04624210300070080FF8B
:1014C000164B70B5040000209C4226D0144DAC424F
:1014D00001D1012021E0134B00209C421DD00126A8
:1014E0002640864201D0601014E02000FFF7BEFDC8
:1014F0004369002B08D0210030009847002803D012
:10150000401B4342584107E02000FFF7B5FF002889
:10151000DFD00138431E9841C0B270BD8C27030054
:101520004827030078F1020010B50400FFF7A4FF7C
:10153000002809D1200024F034FC044902000448AA
:1015400004F03AFD11F00DFA10BDC046845F0300AF
:101550009CFB020070B504000D001600FFF786FD2D
:10156000036A002B05D0320029002000984700288C
:1015700018D10D4D2000002E04D124F012FC0B498F
:10158000020005E0042E08D124F00BFC02000849FB
:10159000280004F011FD11F0E4F924F002FC0549E3
:1015A0000200F5E770BDC0469CFB0200A55F03008A
:1015B000D05F0300F15F030010B524F008FC0028A1
:1015C00005D10349034825F040FD11F0CAF910BDCB
:1015D0001E6003009CFB020010B504000C2025F0E7
:1015E00044F9034B4460036001235B42836010BDF8
:1015F000A0EF020070B51500040024F068FC2A007A
:101600000249200024F013FC70BDC046B15E020008
:1016100070B543790D000024032B06D9836A074C6B
:101620009200E41AC369D358E418032124F040FC63
:10163000447024120570847070BDC046FD7F0000A8
:10164000F7B500230400617183608371E260036178
:1016500001330F0015004361032906D80121836976
:1016600049429A00C06921F021FD0023A362236250
:101670002A8C6B8CD3180122002B00D01A00384E14
:101680002000310024F0D3FBAA8C3100200024F08C
:10169000CEFBE3682000197E24F003FCE368200001
:1016A000997E24F0FEFBE3682000197F24F0F9FB0B
:1016B000E3682000997F24F0F4FB042F07D1636ACC
:1016C000226A31009A1A200024F0B1FB03E00221C3
:1016D000200024F0DAFB31002A69200024F0A7FB67
:1016E0003100EA68200024F0A2FB00262B8D9E42E8
:1016F0000BDAEA6AF300D3181A78032A03D199782F
:10170000200024F0E4FB0136F0E7FF21200024F064
:10171000DEFB042F22D10022688BAB8BC0188242E3
:101720001CD000212B8D0193019B99420DDA0127DA
:10173000EE6ACB00F3185E783E4204D05E88B24277
:1017400001D15B6802E00131EEE702230626DB00EF
:101750003343666B91008B510132E0E7F7BDC04621
:101760008B5E020013B543790400012B2ED08268F2
:10177000002A03D01649174826F022F9002120003C
:1017800024F08FFB6379032B13D1226AD01C98437A
:10179000A36A20626062E362C01825F078F8E3680B
:1017A0002063588B9B8BC018800025F070F8606315
:1017B0000CE0042B0AD1E068636AE26A216B9A1894
:1017C000037E00934069636B03F056FA13BDC04675
:1017D0004360030088100300F7B5224B0600A833CE
:1017E0001B680191022B3BD844698C4238D2836A32
:1017F00002690C1B9D1A23002B432DD00095062C4B
:1018000010D81F2D01D91F2300932700032C00D9C6
:1018100003270121300024F038FB009A7B01134399
:10182000037015E00F2D01D90F2300930E4B2700F5
:101830009C4200D91F000221300024F026FB7022B8
:101840003B0900991340F03A0A4313430370477071
:10185000009BE41BED1ACEE7B36A3361019B736111
:10186000F7BDC046B8080020FF07000070B50D00A6
:101870000121040024F0FBFA0F2D05D0102D05D016
:1018800010210E2D07D102E0112100E012212000CD
:1018900024F01DFB04E0034A1721200024F0B6FBCE
:1018A00070BDC046F0F50200F8B506000D00141E2C
:1018B000124F11D1110024F0DAFA80231B021D42CD
:1018C00003D03221300024F002FB2A0035213A40B7
:1018D0003000FFF79DFE0FE03A000A404621FFF777
:1018E00097FE80231B021D406A1E9541ED012C438B
:1018F000E1B2300024F0EBFAF8BDC046FF7FFFFFF5
:10190000F0B5050089B002AFB96016003B60FFF783
:101910009DFBAB687B611423F81825F0BCFE1423F3
:101920007860F81825F0B7FE032358437B68C01889
:101930008300FB602C2B0AD86B46F8682A30C0085D
:10194000C0001B1A9D46002302ACFB6005E0F8684E
:101950001C3024F097FF041EEED0AA687B69290092
:101960009B1A63607B682000A3613B680093BA68A0
:10197000330006F0D3FA184E00217368200063612B
:101980006B68736001F006FA6369B86073600028E1
:1019900002D0022803D00BE0E3681D6809E07B68F1
:1019A00005339B00E3185D68FB68002B06D10BE054
:1019B0000A4DFB68002B0AD00023BB60200024F0F6
:1019C0007BFFBB68002B02D0280010F0CAFF280064
:1019D000BD4607B0F0BDC046B808002078F102004F
:1019E0000122030030B5134085B004004510002BE0
:1019F0004DD128491D00884249D02749884246D008
:101A0000264B1500984242D00323034006D1244AB6
:101A10000168914202D124F043F90EE0214A2500E9
:101A20002240062A05D0002B09D11F4B22689A427A
:101A300005D101A920000AF007FC050027E02000DD
:101A4000FFF714FB194B984207D1FF23DB05E01881
:101A50000323984319F02CFEEFE7154B984205D16C
:101A600001AA6946200024F090FF0FE0114B984234
:101A700005D101AA6946200029F0EBF806E0022210
:101A800001A9200024F0A3F9002800D0019D28001E
:101A900005B030BD78F102008C2703004827030011
:101AA000E4F20200070080FFA41303006CFD0200B3
:101AB000D4F10200382B0300F7B506000F000092A6
:101AC0000193041E00D044683800431E984120183A
:101AD0000430800024F0C9FE0C4B050003600C4B61
:101AE0005B684360009B8360019BC360002E05D050
:101AF0003100A2000831103021F04EFA002F02D040
:101B00000434A40067512800FEBDC04684F00200E2
:101B1000B808002070B5060010200D00140024F055
:101B2000A4FE034B466085600360C46070BDC04680
:101B30000CF002000379044AD35C002B00D18379B6
:101B40000248DB00C0187047FA070020C0F002000E
:101B500010B50400FFF7EEFF22790368024903483D
:101B600004F02AFA10F0FDFE6F600300ACF60200EC
:101B700010B50400FFF7DEFF034B42689A4202D122
:101B80002000FFF7E5FF10BD511B0000002803D027
:101B900001210379014AD1547047C046FA07002059
:101BA00010B5FFF7C7FF43680248181A431E984153
:101BB000C0B210BD511B000070B505000C00FFF74E
:101BC000B9FF0600A0420BD02800FFF7DFFF7368C3
:101BD00028009847034A2B79A41A034AE410D454E6
:101BE00070BDC046C0F00200FA07002010B5040026
:101BF000002906D0044B8A6B03600968002304F0B7
:101C000049FA200010F0ADFE14FC0200F0B504000B
:101C100087B0039202936718002A0ED0023A222A54
:101C20000BD93C493C4825F010FA10F09AFE207878
:101C30000DF07EFC00285DD00134BC42F7D30023B8
:101C40000093391B200003AA24F03DFE23181D0039
:101C500000240193BD420ED22E7830000DF080FC9E
:101C6000039B002805D032002F3A9A4201DC303E17
:101C70000DE0102B04D0009B002B16D0644214E022
:101C800020231E433300613B052BF4D8573E0399B4
:101C9000200000F075F9002819D1039B5C43A419BA
:101CA0006300634013D40135D4E7012364001C436F
:101CB000019B9D4216D0BD4206D228780DF038FC1B
:101CC00000280FD00135F6E7BD421FD00AE0019B86
:101CD000009A0593F91A05A8039B23F0CAFF059DF6
:101CE0000400E5E70D49039A0B4804F065F90299F1
:101CF000FFF77CFF23782B2B02D101340090A0E763
:101D000000902D2B9DD101342C3B99E7200007B08A
:101D1000F0BDC04681600300ACF60200A460030081
:101D2000F0B504008BB00993431808920193019B0E
:101D30009C4206D220780DF0FBFB002874D00134C1
:101D4000F5E7002304930027844B25000793002325
:101D50003E0006970293019B9D4262D26B1C039347
:101D60002B781A00303A0592092A2BD8022E03D17B
:101D70000A237B439F1852E0012E15D1059819F0D4
:101D800001FD079919F0E2F9011C029818F09EFE76
:101D9000029007981BF0CAFA714A724B1AF080FC45
:101DA0001BF018FB07903AE06F49029819F0CEF942
:101DB000051C059819F0E6FC291C18F087FE002682
:101DC00002902CE0002E02D12E2B02D126E0022E12
:101DD00019D020221A43652A15D1019B039A9342F8
:101DE0000BD96B782B2B02D1AB1C039305E02D2B69
:101DF00003D1AB1C039301230693039B019A9342E7
:101E000070D002260BE00026089AB2421CD0202295
:101E100013436A2B18D1039D013615E00126039D5B
:101E200099E723002C000CE023782B2B61D101349F
:101E30000490019B9C4217D30027002223000697A1
:101E40000292250000261C00069B002B00D07F423A
:101E5000380019F04FFC011C43481CF057FB029955
:101E600019F074F9071C16E0202322781A43692A16
:101E700015D06E2A00D066E70199A21C914212D9B2
:101E800062781A43612A0ED1A27813436E2B0AD1CD
:101E90000026364FE51C049B002B0DD009E001996C
:101EA000A21C91422CD8049B002B1BD0250000269D
:101EB000002780231B06FF18A54213D0019B9D42DB
:101EC00006D228780DF034FB00280BD00135F5E759
:101ED000019B9D4206D1002E02D1099B002B34D0DC
:101EE000234900E02349244825F0AFF81099FFF773
:101EF0007DFE04902D2BB7D12C3B0134049398E741
:101F000062781A436E2ACED1A2781A43662ACAD1C1
:101F1000E21DE51C914214D9E2781A43692A10D1D6
:101F200022791A436E2A0CD162791A43692A08D1A0
:101F3000A2791A43742A04D1E2791343792B00D190
:101F40000535FF270026FF05A5E7032302209F4351
:101F50000A4B3843C0180BB0F0BDC046CDCCCC3DC9
:101F60009A9999999999B93F000020410000C07F42
:101F7000CC600300E9600300ACF602000000808042
:101F800070B506000D00002811DD002906DD15489A
:101F900018F00EFB0124864213DC11E00100C02082
:101FA000000618F005FB012485420ADB08E0002941
:101FB00009DDC020000618F0FBFA0124864200DB90
:101FC0000024E4B20BE00024A04208D00100054840
:101FD00018F0EEFA0123854200DB231CDCB220005E
:101FE00070BDC046FFFFFF3F314BF7B5B43303214F
:101FF0009C462F4A2F48FC32536C834257D9043BEE
:1020000053641A682A4B501CAC331E6805008308C1
:10201000F35C0D406D002B41841A0B400130022B04
:10202000F4D063461B6812019B18240100932048DA
:10203000A3080193019B002BDBD0009B1C680F239E
:102040001C422DD11C4B1B689C4229D30500B8357E
:102050002D68AC4224D20F220500E41AE317134086
:102060001B19AC351B112D689C082D192E781F00EB
:1020700034000F407F003C410C40012C10D10A007D
:10208000BA4016432E700600FC36756C0B4FBD42ED
:1020900003D22C1D74642B6002E00300BC331C606F
:1020A000019B013B0193009B04330093C2E7F7BD02
:1020B000B8080020780900206C090020F8090020E9
:1020C0000F23994370B506000D00081A412118F03E
:1020D000E5F9104C02002300B03318602300210002
:1020E000AC331E608301EB1AB4310B602300300067
:1020F000B83300211D6020F0D9FF22000023FC32FC
:10210000D364A2225200A352443A4733FF3AFF332A
:10211000E25270BDB8080020A222034952008B5A37
:1021200001338B527047C046B8080020A2220349F1
:1021300052008B5A013B8B527047C046B8080020B2
:10214000A223034A5B00D05A431E9841C0B2704795
:10215000B8080020F0B50024032585B00290039153
:10216000039B9C423DD0029AA300D3580F221342F6
:1021700033D11D4A1100B43109688B422DD31000B0
:10218000B8300068834228D20F20591ACB17034079
:1021900010005B18AC301B1100689908401819003A
:1021A000294049008C46077866463900314129406C
:1021B0000191012911D161462E008E4037430770ED
:1021C0001700FC37786C0949884203D2021D7A64F3
:1021D000036002E0019BBC321360FFF705FF01348E
:1021E000BEE705B0F0BDC046B8080020F8090020E1
:1021F00010B5FFF791FF064800220300BC331A60B8
:102200000300044AFC3328215A64FFF7A3FF10BDE2
:10221000B808002078090020F8B503262C4C0025CA
:102220002200BC321368AB4220D023001560294A3B
:10223000FC335A642300B0331B689B009D42EDD2EF
:102240002200AC321268AB08D35C2A003240520044
:1022500013413340032B07D12200FC32536C191D6C
:1022600051641D60FFF7C0FE0135E3E702221E0046
:10227000032794462200B03212689200934221D282
:102280002200AC3212689908521811781D0008001B
:102290003D406D0028413840022805D003280AD06F
:1022A00001280DD1060001E0002E09D00320A8402E
:1022B0008143117004E06046A840002681431170FC
:1022C0000133D7E70023FC34E364FFF72FFFF8BDA9
:1022D000B808002078090020264AF0B51300110044
:1022E000B833B43109681B6803265B1A1100036018
:1022F0000023B0310C681900AC321568436083606C
:10230000C36003614361A400A1422CD00F008A087E
:10231000AA5C37407F003A413240012A12D8012B93
:1023200003D1C7680137C76004E0022B02D10769F7
:10233000013707614769BB4200D94361012A0CD0CC
:10234000002A06D0022A0CD14268013301324260D1
:1023500007E083680133836002E043680133436030
:1023600013000131D0E743681B01436083681B0100
:102370008360F0BDB8080020F7B5A222424B52009E
:102380009D5A0F3004091F00002D01D000207AE073
:10239000002CFBD0A3235B00F95A4A424A41019228
:1023A0003A00B03212683B0094463A003026FC33C3
:1023B000AC32DB6C1068634528D20321C25C0A4250
:1023C00004D10135A54202D39B0027E000250C2152
:1023D0000A4205D10135A54203D39B0001331DE01C
:1023E0000025324205D10135A54203D39B000233BB
:1023F00014E000253F218A4305D10135A54203D3CE
:102400009B0003330AE000250133D4E7019B002B36
:10241000BCD10DF019F801230193C1E7591B4C1CE5
:10242000012D04D13D005A1CFC359208EA64A20833
:10243000801826000322012516407600B540067854
:10244000023135433E000570AC3601928B420DD30C
:102450000D00326888081018019A013115400222D7
:102460006D00AA40057815430570EFE73A00B432D5
:102470001568210101336D181A1B12010021280073
:1024800020F014FE2800FEBDB8080020A22330B5BD
:10249000214A5B00D35A002B3CD10F21084239D18D
:1024A0001300B4331B68984234D31400B834246842
:1024B000A0422FD2C31AD8170840C0181300AC335B
:1024C00000111B6881085C5C050003231D406D0042
:1024D0002C412340012B1DD11300FC33DC6CA142A5
:1024E00000D2D9640321AC3214688308E3180400D5
:1024F0000D000C406400A5401C780130AC431C70FA
:1025000014688308E35C04000C40640023410B4022
:10251000022BE9D030BDC046B808002070B50F24AA
:102520000200204029D116490B00B4331B689A429F
:1025300024D30D00B8352D68AA421FD2D21AD31762
:1025400023409A18AC3113110D689A08A95C1C003D
:102550000322144064002141114001290ED15C1C6A
:102560002600A108695C164076003141E01A11404E
:1025700001340229F4D0000100E0002070BDC04603
:10258000B8080020A223F0B50600002085B05E4FF9
:1025900002925B000D00F95A814200D0B2E08642FF
:1025A00004D131002800FFF7E7FEABE0002D00D199
:1025B000A4E00F2233000800134000D0A2E039004D
:1025C000B4310C681800A64200D29BE03900B83143
:1025D00009688E4200D395E0311BC817024052189B
:1025E000121100923A00AC32126800980192009ADF
:1025F000019992088A5C0321014049000A410321A4
:1026000018000A40012A7DD129000F310909B0378D
:102610008C46140039680327890003910099013121
:10262000039A914213D201988A08825C08003840CC
:10263000400002413A40022A01D1013405E0002A5B
:1026400005D10133E218944501D90131E8E7644529
:1026500045D022D9009BAC2263441900944608005F
:10266000009BA93A1B190093274B9C4465462D6893
:1026700084082C190500170015406D00AF4025781F
:102680000130BD432570009CA042EFD1FC33DA6CD1
:102690008908914223D2D96421E01B199C4520D896
:1026A0000325009B1849E318AC31009A6244934219
:1026B0000CD208689A0882181800022728404000A7
:1026C00087401078013338431070EEE76346191BDA
:1026D00009012201B0180A00002120F0E7FC3000B7
:1026E00010E0029800280DD028000021FFF744FEDA
:1026F000051E07D02201310020F04EFC3000FFF70C
:10270000C5FE280005B0F0BDB808002010B58AB09D
:1027100004A8FFF7E1FD069B094C03930093049A7C
:10272000059B0849200025F04BF9099B079A039364
:1027300000930549089B200025F042F90AB010BD1E
:10274000881003000361030026610300F8B53E4DC5
:102750003E4E2B00B4331A683D49300025F030F965
:1027600000242B00B0331B689B009C4223D23F22E5
:10277000144230D12A002700AC3210680321BA0875
:10278000825C394049000A4103210A4202D10137E3
:10279000BB42F3D83A1B7F2A12D992092D49300047
:1027A00025F00EF93C003F239C432B00B0331B68FF
:1027B0009B009C4204D33000274925F030F8F8BD37
:1027C0002A00B43212682301D2181203120B2349D3
:1027D000300025F0F5F82A00AC321268A308D35C6B
:1027E0000322224052001341032213407132022B74
:1027F00023D0073A032B20D02E22012B1DD12B00F2
:10280000B4331B682201D358154954228B4214D08B
:102810001449083A8B4210D01349083A8B420CD025
:10282000124902328B4208D01149043A8B4204D03B
:1028300010490B328B4200D01B320F49300025F07B
:10284000BFF801348DE7C046B808002088100300A7
:102850005A61030075610300836503009161030001
:10286000D4F10200382B03002C2403006CFD02007D
:1028700084F00200A0E8020021C50300014B1860AB
:1028800001487047AC08002078F10200F8B5070055
:10289000FEF7D6FC102805D02349244824F0D5FBA8
:1028A00010F05FF8A1220021214BD200A2259950FF
:1028B0000922ED005A51802080228000D2021A5055
:1028C0001C48C1241950A9211F20A400C900585038
:1028D0001A518022C023C220174ED2005B00F25052
:1028E000800033589C466146144B0B40C0210904BC
:1028F0000B433350C0235B00F25038003260FEF7C8
:102900009FFC0300A0220C21C133FF339B00D205A2
:102910009950402301223360094B00021843094BB0
:10292000585109481A51F8BD996103009CFB0200F7
:1029300000A000400405000000E100E0FFFF00FFF0
:10294000010002000060004078F102000B4B0C48CF
:102950001A68C16C013210B51A600A4B012907D1FF
:10296000C124A4001C59640302D50024C464D960A6
:10297000C82A02DD01225A60DA6010BD240100205D
:10298000FCA0004000A00040F7B5484B5A680193F6
:10299000012A00D088E0C12345499B00CB5813424F
:1029A00000D181E0434C444E23683C2B09DD0023D9
:1029B00042490B8042494A60CA60424A23603370F0
:1029C00013703378002B08D101223D493270236007
:1029D000CA600A603C4A136063E03C4D22682B7871
:1029E0003B4F01332B7000230D2A07D12B7023603E
:1029F0003449334B0C3A0A70DA6024E0012A03D1DF
:102A00002F492360CA6005E0022A05D12360012313
:102A10002B4AD3603B7016E00B2A14D10121284ABF
:102A200023605160D1602B4A337013785B18DBB29E
:102A30001370052B07D9284B1A68284B1968284BA7
:102A4000186826F06FFE3B78012B06D12A782549BD
:102A5000013A93400A6813430B602B78202B20D156
:102A6000002301211B4A1370154A5160D1601D4A91
:102A700023601068114C010C21801B4913600880F1
:102A800080B2337023F0CFF8144D2860208823F0F3
:102A9000CAF8114B02001860114B2968186826F01B
:102AA00041FE0023019A5360F7BDC046FC60004020
:102AB00000600040240100201C080020EE070020D8
:102AC00000A000401A0800201C0100201E08002061
:102AD0001B0800201D080020B4080020B0080020BA
:102AE000AC08002020010020EC0700208022044BCD
:102AF00052001A600123034A1360034A13607047AF
:102B000000E100E00C8C0040008000408022054B7A
:102B10005200DA67044BFF3A5A600022034B1A60F6
:102B20007047C04604E100E0008000400C8C00408B
:102B300070B501251D4B1E4C18601E4BE550C0465C
:102B4000FFF7E4FF1C4A1D4BE560E2500023022121
:102B50001B4AC220A3500432A15049180832A15088
:102B60008021C12209039200A150053AFF21FF3ABA
:102B7000A3504024134B80001A588A4322438024D8
:102B80001A500C301A5824061202120A22431A5004
:102B900004301A588A433F390A431A5080221204DB
:102BA0001A60802252041A6070BDC04628010020BD
:102BB00000800040FC0F0000701700004C05000072
:102BC0000405000000E100E070B5224C224D636C6A
:102BD000002B0AD000236364204B1B689847A8226F
:102BE000D200AB580001C018A850A36C1A4D002B9E
:102BF0000AD00022174B9A64184B5B689847184A12
:102C00000001AB58C018A850E36C134D002B0BD03B
:102C10000022104BDA64114B9B689847A922D2001E
:102C2000AB580001C018A850236D0B49002B0FD0E2
:102C30000022084B0B481A650B4A8B581B188B5007
:102C40000A4A1368063313608022094B12045A6043
:102C500070BDC046FC8000400080004004000020A1
:102C600044050000701700004C0500001807002004
:102C7000FCE100E0F7B50191032824D8134B800054
:102C8000C758C223124D9B00EF50012344192364FF
:102C9000A823DB00E6589C460E4BEB58D21A92193B
:102CA000D61731000F260E40B218019912110A4EA4
:102CB000013281511201C121D318624689006F503F
:102CC0000020A35001E001204042FEBD6CF1020053
:102CD000008000404C0500000400002003280BD8B1
:102CE000074B8000C158C223064A9B00D150064AB8
:102CF000064BC250002001E0012040427047C04610
:102D00006CF1020000800040C16802000400002055
:102D100010B5024B1B68984710BDC0462801002023
:102D200010B50024054AA358002B02D00021A15061
:102D300098470434102CF5D110BDC0462C0100205A
:102D4000074A89008B58002B06D188508021054AFC
:102D500049045160180001E0012040427047C0461C
:102D60002C010020FCE100E0054B002805D00023E9
:102D7000022802D101224B00134318007047C046BD
:102D80008C27030010B5024924F049FD10BDC04650
:102D9000116E0300F0B5836999B05A1E04925A1D52
:102DA000920082180432029202009B001C320791AA
:102DB000D3180F21012203930369019006A81A403A
:102DC00009180A70032293430A930CA80FF0AEFD72
:102DD000031E01D000F0BAFD019A5568D468079A25
:102DE000002A2CD02A785E2A29D00798079300F071
:102DF000E6FC7B783A781B021343BA4A9B18FB180F
:102E00006360EB78083423600F267F2102200125C0
:102E100006AA2368B6180B4200D1C3E20A9A013B06
:102E20005268024200D1B5E2220008C20523636065
:102E300014000A9B1F680A9B0C3B0A933D00019BF0
:102E40006F1C5D602B78180010385A2801D900F0EB
:102E50002DFD17F00FFB5B005D0062002B05640089
:102E60002B057400830089002B058B00A100B300A3
:102E7000C300D300E200F300F80000010F012401B9
:102E80003501530164016D0181019A01A8012B05EF
:102E90002B052B052B05B601B8014205BF01C50165
:102EA000CF01D701E501F301FF012B052B052B0510
:102EB0000D023D02AE02AE02CB02E102E502F602D5
:102EC000F602CEFF2B052B052B052B052B052B051D
:102ED0002B052B052B050203150327033903480394
:102EE0005103670379039103AF03C2037104A20482
:102EF000C804B7042B05DA03E503F003F90309045A
:102F000025043C045804040515052605764B00E00D
:102F1000764B6360043400F00DFD754BF9E77F21BB
:102F20006B785B06DB173A78DB01100052B2084081
:102F300003430137002AF6DB5B0001220CE000238B
:102F40007F213A78DB01100052B20840C3180137E4
:102F5000002AF6DB0622DB001343DAE70322FB1C20
:102F600093431F0008CFD4E70023D2E700237F213B
:102F70003A78DB01100052B20840C3180137002A2A
:102F8000F6DB9B005B42029A9858002800D056E27C
:102F90005849594800F085FD00237F213A78DB012C
:102FA000100052B20840C3180137002AF6DB029A1B
:102FB0009B005B42985825F0D0FDE6E700207F2279
:102FC0003B78C00119005BB2114008180137002B93
:102FD000F6DB251D0BF0CAF900F061FC00207F2212
:102FE0003B78C00119005BB2114008180137002B73
:102FF000F6DB251D0BF088F900F051FC00217F2243
:103000003B78C90118005BB2104041180137002B12
:10301000F6DB206826F09EFB30E200217F223B7821
:10302000C90118005BB2104041180137002BF6DBD4
:10303000220001CC0BF00EFB00F07CFC251D0BF0F8
:10304000ADF900F02CFC251F042221682868FEF74A
:1030500081FA00F05EFC00237F213A78DB0110004A
:1030600052B20840C3180137002AF6DB9B005B42CE
:1030700000F030FC00237F213A78DB01100052B2CF
:103080000840C3180137002AF6DB029A9B005B4216
:1030900021689858251F25F062FD00F03BFC0020B8
:1030A0007F223B78C00119005BB21140081801373C
:1030B000002BF6DB2168251F0BF084F900F02AFCB9
:1030C00000207F223B78C00119005BB21140081834
:1030D0000137002BF6DB2168251F0BF08BF900F080
:1030E00019FCC0460280FFFF8C27030078F1020024
:1030F00048270300AB61030098F8020000217F22FB
:103100003B78C90118005BB2104041180137002B11
:10311000F6DB231F1A6820680BF0C4FA00E22200D5
:10312000231F083A126821681868FEF713FA3EE177
:1031300000237F213A78DB01100052B20840C31807
:103140000137002AF6DB029A9B00D31A1A68002A7C
:1031500000D11DE7002241E000257F223B78ED01F0
:1031600019005BB211404D190137002BF6DB029BB1
:10317000AD005D1B286825F0F0FC002800D107E7B2
:103180000021286825F0EBFCD4E300207F223B7867
:10319000C00119005BB2114008180137002BF6DBA3
:1031A0000BF01CF9C6E300207F223B78C001190018
:1031B0005BB2114008180137002BF6DB0BF026F943
:1031C000B8E32368A5E62368A360231F1B68636038
:1031D0000834AFE3231F1968226821601A60A9E34D
:1031E000221F1368216823602300083B18681060C1
:1031F00019609FE37B783A781B021343DB4A9B18E4
:10320000FF1897E37E783B78206836021E43FEF76E
:1032100057F9EF1C251F2C00002800D18AE324E079
:103220007E783B78206836021E43FEF749F9EF1C92
:10323000251F2C00002800D07CE316E07E783B7828
:10324000360220681E43EF1CFEF73AF9002800D131
:1032500043E30AE07E783B78360220681E43EF1C89
:10326000FEF72EF9002800D037E3C14BF618E4E052
:103270002600276822003800172108360BF0EAF9EB
:103280003800320016210BF0E5F900213200080069
:1032900026F051FAAB786A781B0213430A9AEF1CA6
:1032A0000C320A920A9AFB1813600F220A9B251D02
:1032B000059306ABD2181378190002231943059B16
:1032C0000D435D6000230A9913708B60A0606FE16D
:1032D00025002668A74B083D9E4208D16660A6607F
:1032E0002A000021032026F026FA2E6012E3012195
:1032F00031402CD07610231F012E10D126001A68E1
:103300000C3E05929B4A00211A60032022606260F5
:10331000320026F010FA059B3360032315E02600E7
:103320002A68103E05921A6800210692914A0320ED
:103330002A601A602260320026F0FDF9059B069A89
:10334000336023000C3B1A6005232B60E8E02B68F8
:103350002E602600103E23603200032026F0EBF999
:10336000FEF7AEF800280DD00122824B06A933608B
:103370000A9B5B6813400E32521813700A9B0C3B79
:103380000A9315E1236833602300043C22680C3B58
:103390001A60BFE20A9A52682A4032700A9A0C3ABE
:1033A0000A9238E5221F1768002B00D1B8E00C3CC8
:1033B000C0E27B783A781B0213430A9AEF1C0C3266
:1033C0000A920A9AFB1813602B780A99403B5842DC
:1033D00058410F22430006A81218107803432343D4
:1033E0004B6000230A9913708B60A3E2206802F0FF
:1033F0002BFE251F002803D00FF0AEFA2B682BE21E
:1034000023685C4A2C00934200D193E25B10DBB24C
:10341000012B00D0F8E49DE120680BF067F92DE066
:103420007E783B7836021E43019BEF1CDC602068EF
:103430000BF084F9002802D1043CBF197AE26060E5
:1034400068E50A9B06A95A68012313400F22521807
:1034500013700A9B0C3B0A936CE200207F223B789E
:10346000C00119005BB2114008180137002BF6DBD0
:103470008300E41A0434210000F098FB206059E234
:1034800000207F223B78C00119005BB21140081870
:103490000137002BF6DB8300E41A0434210027F007
:1034A000C1FBEBE700237F213A78DB01100052B229
:1034B0000840C3180137002AF6DB9B005B422168F5
:1034C00018590EF003F808E200207F223B78C00173
:1034D00019005BB2114008180137002BF6DB251DDF
:1034E00026F0BFF8DBE12500231F083D1A6821689C
:1034F000286826F0EFF80DE200237F213A78DB01FF
:10350000100052B20840C3180137002AF6DB01331D
:103510009B00221F5B4212682168185926F0DAF8D6
:10352000083C07E200207F223B78C00119005BB213
:10353000114008180137002BF6DB8300E41A04342D
:1035400021000AF0CBF899E700237F213A78DB01CC
:10355000100052B20840C3180137002AF6DB9B0066
:103560005B422168185925F079FEB6E10280FFFF21
:103570000080FFFF78F1020000237F213A78DB0111
:10358000100052B20840C3180137002AF6DB251F8D
:10359000022B05D1D24A21682868FDF7A5FCB8E1C5
:1035A0002600083E226829683068FDF79DFC3060DF
:1035B0003400BFE100257F213B78ED011A005BB2AA
:1035C0000A4055190137002BF6DB2900220020683C
:1035D0000BF000FCC34BED1814E000257F213B7875
:1035E000ED011A005BB20A4055190137002BF6DBDA
:1035F0002200290020680BF043FCFF232A0A1A400E
:103600001D405519AD00641994E10322FB1C93433E
:103610000022186811001F1D251D23F02BFB3EE121
:103620000322FB1C9343251F2268296818681F1D6D
:1036300023F020FB6DE10322FB1C934319795F1DEE
:103640008A00A41A04340AE00322FB1C934319796C
:103650005F1DCA439200A418802252001143220029
:10366000186823F022FB09E700207F213B78C00186
:103670001A005BB20A4010180137002BF6DBFF235B
:10368000FF220100C5095B0011402B405B189B0025
:10369000E41A000A0240231D20680AF02DFFEDE61F
:1036A00000217F223B78C90118005BB2104041180D
:1036B0000137002BF6DBFF23CA095B001340CAB2B7
:1036C0009B189B00E41A083C2200002031E00023F4
:1036D0007F203A78DB01110052B20140CB1801374C
:1036E000002AF6DBFF211800FF22DD090840520006
:1036F0002A40451C52199200A41A1B0A19402200A4
:1037000026F019F8BAE600217F223B78C90118009B
:103710005BB2104041180137002BF6DBFF23CA09CA
:103720005B001340CAB29B189B00E41A0C3C2200B9
:1037300001200BF025FAA1E60F2206ABD218137870
:10374000002B07D00A9B596801230B4013700A9B7A
:103750000C3B0A9302220A9B0399994217D80A9BB1
:103760005B6813420FD003220A9B21685B68934376
:103770001C0059609A600A9B08341F680A9B0C3B26
:103780000A93FFF75BFB0A9B0C3B0A93E3E70FF0FE
:10379000E3F8019B0020DC6087E16B78022B01D10C
:1037A000043C0BE0002B09D10A9B039A934200D200
:1037B00075E19868002802D10C3BF6E720680BF011
:1037C0005DFC70E1079E002E1CD0079E0021320098
:1037D0000791201F0BAB00680BF0E4FB012816D10A
:1037E0002F000B9B23600FF0B7F8019B06AA5F60C8
:1037F000DC600F239B181B780A9A01201343019A5F
:10380000136152E1201F0BAB32002168E3E700286F
:1038100006D10B9B043C002B00D1314B23600CE004
:1038200002281BD130490B9823F019FC002810D036
:103830000B9802F0A1FB043C2060002E7AD02B49AB
:10384000300023F00CFC002874D00FF085F80D96A2
:103850007CE00FF081F80B9B0D9377E0043C002097
:103860007F223B78C00119005BB211400818013774
:10387000002BF6DB251F2A6821680BF01DFC48E0B1
:1038800000217F223B78C90118005BB2104041182B
:103890000137002BF6DB250001CD0BF01FFC60602B
:1038A00038E02068251F25F060FF33E0AF2B05D8F6
:1038B0000120803B5B000343FFF72BFBBF2B04D8A9
:1038C000B022D31A9B00FFF75EFBCF2B10D8C0228B
:1038D000D31A9B00029A21689950043C2AE0C04602
:1038E00078F10200FFFFFF3F58F9020050FC020090
:1038F000D62B05D8D03B180021680AF093FDBDE512
:10390000FA2B09D8251FD73B1800226829680AF02E
:103910007FFF28602C000DE06549664823F095FB89
:1039200004000FF019F8049B019A06339B00D3188A
:103930005C60B2E0604B1A6B002A01D1FFF77EFA9F
:1039400000221C6B1A630FF007F80D940D9B5B4966
:1039500018680DF001FD002825D0019B5B68002B45
:1039600021D01A78432A0BD19A78597812020A4347
:1039700003339B18019A5360D3680593043B82E09C
:103980005E2A10D1019B019ADC680D98231DD3603B
:1039900002F0F2FA019B60605B68019A05930133C3
:1039A0005360FFF712FA0D9B454A934240D0454AB7
:1039B00093423DD0019B0BA81B6805930B9323F00A
:1039C0006AFE04000BA823F066FE05000BA823F096
:1039D00062FE019B01005B680593019B1B680693D7
:1039E000069A059B9E1A1F2301229C46361B0B9CA0
:1039F0002378002B14D018007F27B84304D16046E9
:103A0000013418405B0908E00F20E0271840FF0050
:103A10001B011F40637802343B430B94864204D25F
:103A20002B000D9802F036FB02E0361AD218DEE7C2
:103A30000F23012106AA9B181A78002A07D00A9A98
:103A400052680A401A700A9A0C3A0A92F4E70A9AE3
:103A5000039991421AD801221A700A9B0D991B688A
:103A60000593059A019B05915A6003220A9B5B68A6
:103A700093430A9A9160144A5A600D9A9A601268A8
:103A80000C331A60019AD360FFF79FF9049B019AE7
:103A900006339B00D3180D9A5A60022005E00B49AB
:103AA0000B4823F0D2FA04004DE719B0F0BDC04630
:103AB000D761030044FB0200B808002058F9020057
:103AC00068F70200C8FC020078F10200F16103000F
:103AD000E8F6020070B50E0010490400002523F03E
:103AE0009EFE73689D420ED2002D03D00C4920002B
:103AF00023F095FEAB00F318012299682000FDF732
:103B0000CFFA0135EDE7012B03D10649200023F060
:103B100086FE0549200023F082FE70BD1F5E030073
:103B2000215E030010620300A35F030070B50D0067
:103B300001281DD0002804D002281DD10F4C0026DA
:103B400005E04B680E48002B17D10E4815E06B6856
:103B50009E4209D2B300EB18996802200AF062FC79
:103B6000401024180136F2E701206400204304E0ED
:103B70004B685B00184300E0002070BD10F20200AB
:103B8000482703008C27030010B50400102022F002
:103B90006CFE044B84600360034B43600023C360EE
:103BA00010BDC046A8E902004969020070B50600D0
:103BB0000D000C48002E14D0B41CA400200022F0EC
:103BC00054FE094A030002604660002D09D000221D
:103BD000083CA24204D0A858991888600432F8E73B
:103BE000180070BD10F20200D4F10200F0B504001C
:103BF00085B00D00160007282AD002D8052805D068
:103C000062E00300193B042B3FD95DE01000FDF793
:103C10002DFA2F490DF0A0FB011E56D06B6872687B
:103C200000219818FFF7C2FF070029006B680837CA
:103C30009A000400083138001FF0AEF931006868BE
:103C40007368800038189A0008311FF0A5F918E051
:103C500003A91000FDF732FB0021884235D00398FC
:103C6000884210DD6B685843FFF7A0FF0400230073
:103C70002800083300930830039B6A68042123F06E
:103C800097F8210021E013491FE00800FDF7EEF945
:103C90003000FDF7EBF9104B426A9A4205D0300034
:103CA0000B4926F0FFFE061E0CD033002900726877
:103CB0000831009208336A68200001F0A3F8074930
:103CC000002802D1064900E00021080005B0F0BD3F
:103CD000D4F1020010F20200893B000048270300E3
:103CE0008C27030030B5050085B0042A2CD10324AD
:103CF0000C401FD1164B0A689A421BD101AA40689A
:103D000001F046F8002802D112480BF09FFA019BFF
:103D100002982100C01AFFF749FF040029006368D8
:103D200008319A00019B08309B00C9181FF034F934
:103D300020000AE00A00002369682868FDF758FBA4
:103D400002308000405900E0002005B030BDC04680
:103D500034EE020012620300F0B50C0011000022E4
:103D600085B020001D00009201230CF049F918488D
:103D7000002C2AD02868830703D1164B02689A4288
:103D800023D0102022F071FD040028680AF0AEFC58
:103D900000250426039003980AF0F8FC071E0BD0B8
:103DA000AE4205D8F100200022F075FD0400760037
:103DB000AB001F510135EEE721002800FFF7F6FEAA
:103DC0000500200022F078FD280005B0F0BDC046B7
:103DD00010F20200D4F102008023044A5B051B6943
:103DE000107858438023DB02181A704721080020FE
:103DF0008023044A5B051B69107858438023DB024B
:103E0000181A70472008002070B5084DC4012B68AF
:103E10000021181922F05EFF2868054B00197F3039
:103E200000781B788342F0D270BDC0463C01002070
:103E30002208002010B5C3790400002B08D0064BDF
:103E4000817900791B68C0011818013022F042FF07
:103E50000023237210BDC0463C01002010B5034969
:103E6000034823F0F2F80EF07CFDC04643620300E5
:103E7000ACF602000200124B10B518685379DB0152
:103E8000C3181C007F342178FF2908D11179C9019A
:103E900041184978FF2910D0907988420DD0917946
:103EA0005B1801315878CBB27E2B01D0937106E0BC
:103EB000002393712378537101E00120404210BD2B
:103EC0003C010020F82370B59B021A784D2A01D0DE
:103ED0008023DB028026802076053469C00264429C
:103EE0002340346931691C1B001B16F0D7FA2B4B99
:103EF0002B4A187033692B49E518AD185B422A4AE2
:103F00001D402A4B521AD2183300954202D2196929
:103F10006D18FAE7802380205B05C0021969401BF9
:103F200016F0BCFA0122A121641B0025204BE411EC
:103F30001870204BE4B21C701F4B20481A60C90057
:103F40001E4E456073681C4A002BFBD05358DBB2F1
:103F5000A342F5D21A4901330B7001235360FFF7D6
:103F60003BFF03780500174CFD2B09D180235B052F
:103F70001869154BC009C018C001281820600BE053
:103F8000FFF736FF0378803DFD2B04D0FFF730FFAD
:103F9000FD2122F09FFE256070BDC0462008002054
:103FA000FF89FFFF0000002000010020D4EA030089
:103FB000210800202208002000D00040FCD0004052
:103FC0001F0800203C010020FFFFFF01F0B585B075
:103FD000264E274A3478274D20001378296801336C
:103FE00002960392C201525CFF2A3DD00130C0B25A
:103FF000984200D10120A042F4D1802300275B0524
:104000001B69DB090093E30101932B68E2019E1811
:104010003278300053425341FF1822F071FE0023E2
:1040200000280FD0009A934205D0DA01B25C002A32
:1040300008D10133F6E72868019BC01822F056FE2C
:10404000200011E0039B01341B78E4B201339C4251
:1040500000D10124029B1B78A342D4D1072F02D99F
:1040600022F09CFCB4E7FF2005B0F0BD1F08002043
:10407000220800203C010020F7B507000D000124B4
:104080000E4B1B7801930E4B1E68019B9C4211D86E
:10409000E10171180B78FE2B09D18B78AB4206D168
:1040A00003312A0038001EF04FFF002804D00134ED
:1040B000E4B2EAE7FF2000E02000FEBD2208002075
:1040C0003C01002010B5054B00791B68C001181891
:1040D00081780022033007F007FC10BD3C0100206E
:1040E000F0B585B002900D0016000393782949D8E9
:1040F000FFF7C2FF0400002E26D0FF2801D0FFF7F3
:1041000083FEFFF763FF0400FF2805D11F49204805
:1041100022F09BFF0EF025FC1E4FC0013B68019072
:10412000FE21181822F0D6FD3B68019AE9B29818D2
:10413000023022F0CFFD3868019B2A00C0180330FE
:10414000029900F0D1FD02E03300FF281BD00C20C3
:1041500022F08BFB039B002B01D00F4B00E00F4B99
:1041600003600C4B04711B684471E4011C19A378B3
:10417000C67102338371012303726B461B7B43724A
:10418000030000E00023180005B0F0BD60620300EA
:104190005CF802003C010020482603009C26030036
:1041A00007B501A908F050F80199FFF765FFFF284E
:1041B00005D10549054822F048FF0EF0D2FBFFF774
:1041C00023FE03480EBDC046766203005CF8020081
:1041D00078F10200F7B50192027A05000091002AF9
:1041E00001D1FFF73BFEC479002C06D1214A1768A4
:1041F0000279D201D25D002A23D1092201201A605E
:10420000404236E02879C00138184078FF2824D091
:10421000C01A824200D902000198061B964200D9BA
:104220001600002E24D0009AC9181019013132004E
:104230001EF0B2FEAB799B19DBB27E2B0FD0AB71B7
:10424000A41969797E22C901791808007F30AB79F9
:104250000078D21AFF28DFD1D4E70022DCE7002360
:10426000AB716B79DB01FB187F331B786B71E7E770
:104270002000FEBD3C010020F0B585B00393037A19
:10428000040000910292002B01D1FFF7E7FDC379F2
:10429000002B07D0294A03791268DB019B5C029F3F
:1042A000002B1BD109233EE060793368C001181848
:1042B0007F30019922F00EFD019B6179D8013368AE
:1042C000181822F007FD63793268DB01D3187F33B9
:1042D0001B786371009B7F1B5B190093002F27D015
:1042E0007E22A379D51ABD4200D93D00134E6079D4
:1042F0003268C0011018C01801302A00009900F07F
:10430000F3FCA3795B19DBB27E2B13D10023A371DD
:10431000FFF75CFE0190FF28C6D12079FFF774FDFE
:10432000002323721C230120039A4042136003E000
:10433000029801E0A371CDE705B0F0BD3C0100207B
:10434000002170B5080026F06DFC012405000C4B1F
:104350001B78A34212D30B4AE3011068C0180378FC
:10436000FE2B08D181780022033007F0BDFA01004E
:1043700028000DF0ABF80134E4B2E8E7280070BD86
:10438000220800203C01002073B501A907F05CFF62
:104390000199FFF771FEFF2805D10F490F4822F060
:1043A00054FE0EF0DEFA00257E260D4B1C68C3017C
:1043B000E31859789B780233DBB2C201A2187F322E
:1043C0001078FF2803D0F21AAD180023F5E7C81AB9
:1043D000401921F028FC76BD766203005CF80200EB
:1043E0003C01002010B5024B024A25F0CCFA10BD6A
:1043F000353E0000753E0000F0B505008BB0086842
:104400000C0007F00BFF049004A822F02FFB0027FC
:10441000049B03900693069B1978002911D008008D
:104420000BF09EF8002806D006A822F031FB069B70
:104430001B78732B00D10120069B3F180133069394
:10444000E9E73800FFF7B2FB0122009007A9606896
:10445000FDF7B2F8079B089A05939B180192029307
:10446000022D0AD9A068FCF7EBFE002802DA089BAF
:10447000C01826D4059B1818059000240DE02900CB
:1044800007F04AFA059B009A5D19A31C9B0005954D
:1044900001349850049B01330493BC4230D2049BF6
:1044A000187800282CD00BF05BF80125002803D0E9
:1044B00004A822F0EDFA05000598029A43199A42E1
:1044C00005D21149114822F0C0FD0EF04AFA049BB2
:1044D0001B78732BD3D0009BA6009E190195019BDE
:1044E0000436002B0AD0049B05AA1978039803F020
:1044F000EDFE019B7060013B0193F0E76419C9E791
:1045000000980BB0F0BDC04685620300ACF6020017
:10451000F0B589B0039101921E0007F07FFE049070
:1045200004A822F0A3FA00250290B5424ED2049BC3
:10453000187800284AD00BF013F80124002803D083
:1045400004A822F0A5FA0400039B019A1B199A42C1
:1045500005D21F491F4822F078FD0EF002FA049B95
:104560001B78732B04D02D190E9BAF00DF191CE0B4
:104570000E9B6F1CAD00E858012205A9FDF71CF841
:10458000069B25009C4200D91D002A00059903982E
:104590001EF002FD039B621B581900211EF086FDD0
:1045A000039B3D001C1903940CE0002C0AD0049BD3
:1045B000A20052421978BA5803AB029803F0E8FE01
:1045C000013CF2E7049B01330493AEE709B0F0BD70
:1045D00085620300ACF60200F0B50E0089B00390CE
:1045E00001CE0F0022F06AFA4410210004A822F044
:1045F0006BFF069D2200002128001EF057FD039B43
:104600000096013B2A1929003868FFF781FF04A9A9
:10461000024807F033F909B0F0BDC0462421030079
:1046200030B50C0089B005000222606805A9FCF7CE
:10463000C3FFA068FCF704FE002809DA069B039379
:10464000C01805D509490A4822F0FFFC0EF089F987
:104650000599069AEB1E8A18091820000C30009064
:104660002068FFF755FF034809B030BD856203009D
:10467000ACF6020078F102007FB50B00012803D1EF
:1046800000211868FCF726FD102102A822F005FF82
:104690000A4902A824F067FF039B0193002B06D16F
:1046A000042804D1064822F0C3FC0EF05AF902A9EE
:1046B000044807F0E3F807B000BDC04650D203003D
:1046C000CCFA0200A4130300F7B51D4D1D482B00C2
:1046D0000833D96F0378A0279A1C9200545A8E1879
:1046E0004A88FF055443A122D2009446A4120190A7
:1046F000F278002A08D00120B278013390400200FD
:1047000060463A50DAB20DE00F4B48682E00F85080
:1047100028008830036808361400002B02D01900E6
:10472000F3670260931C9B00585ACE184B8858437D
:104730008012001B01D11300DAE7019B1A70FEBD45
:10474000B8080020230800200C050000044B054990
:104750001A000832D167002288331A607047C046B9
:10476000B8080020BCF2020010B5782202490220ED
:10477000FEF780FA10BDC046C9460000421E114B2C
:10478000FF3A70B59A421AD8051172B60E4B002046
:104790001A001900883214680831106062B61E00D1
:1047A000844200D1CC6F2178200022F0C2F96368E6
:1047B00045804360330088331860002001E0012009
:1047C000404270BD40410F00B8080020054B1A0060
:1047D00088331B680832002B00D1D36F5888000142
:1047E0007047C046B8080020F0B54E4A85B00700B3
:1047F0000B00914200D913008022D200D21A0192FC
:1048000072B6494A002011008832146808311060DD
:1048100062B6844200D1CC6F0126BE406268009629
:10482000324207D13A00A0210320C132FF32920068
:10483000C9055050002521788D425BDAAA00A218E4
:10484000927A974201D00135F6E7002B13D1013956
:10485000200022F06EF96368009A060093434360DB
:1048600023785A1E954211DA01339B0002351B59F9
:10487000AD002B500AE0200022F05BF963680600CF
:1048800043606B4602359B88AD002B526388341D14
:104890007380012300933378009A9A4226DA250028
:1048A00023890193A37A0293E37A0393009B5F1E0B
:1048B000AB88019A934208D92800291D08300422A8
:1048C0001EF06AFB043D013FF2D26B4603379B8822
:1048D000BF00F7193B806B461B7A0434BB706B46F4
:1048E0001B7BFB70009B01330093D4E70E4B883396
:1048F0001E6014E0002B12D00131200022F019F9C3
:104900006268009B060013436A46436023789288DE
:104910009B00C3181A8101229F72DA72B6E705B0B4
:10492000F0BDC046FF030000B808002010B500210C
:104930000400FFF759FF0D4B0833DA6F002310789E
:10494000834211DA99005118897A8C4201D00133DF
:10495000F6E702339B00D3181F229A700123A0218F
:10496000A340034AC9058B5010BDC046B8080020BB
:104970000C0500007FB54B680E005C1021006846F6
:1049800022F0A2FD029D0021220028001EF08EFBD5
:1049900001213068014004D12B00220021F01BF9D5
:1049A00008E043102000042C00D904202A00002134
:1049B00022F0D5FE6946024806F060FF04B070BDE3
:1049C00024210300F0B50C00002585B01100200063
:1049D0001E00009502232A000BF012FB0120AC42BE
:1049E0003FD0844228D1306820423AD1032303408B
:1049F000AB4203D11C4A0168914232D01B4A0240AB
:104A0000062A06D0002B0BD10268194B92699A42F4
:104A100006D103A907F018FC002303991A0018E037
:104A2000032302001A40022A16D1FF22D205801861
:104A30009843FBF73DFC14E003A9306807F004FC41
:104A400004007068039FFCF7FBFB2B000200390099
:104A50002000FDF7DBF804E0FCF7F2FB0123400047
:104A6000184305B0F0BDC046E4F20200070080FF25
:104A70002DC80000F0B58DB0099214AA1278040078
:104A80000B9215AA12780F000892DA0700D496E06C
:104A90001800FCF7D5FB002305900793002803DAE4
:104AA000434205932D230793129B0026023B1E2BA6
:104AB00016D8534B129A2020995C15F0EFFC089BF6
:104AC000C5B2B34204D0681C032115F0E7FC060010
:104AD0001398002801D01FF0C5FD0335AE19361814
:104AE0003B68B34204D2300021F0BFFE20603E603C
:104AF00023689F19069300237D1E2B70059B002BB6
:104B000004D00B9B0A950A3B0B931DE03023023F18
:104B10003B7030E06F1E3B70089B002B25D0059B3F
:104B2000002B28D0069BBB4225D20A9BDB1B032B04
:104B300009D16B4620229B181B78AF1E3B70069B49
:104B4000BB4218D20A973D000598129915F016FE3F
:104B50000F000598129915F02BFD3B00059030339E
:104B6000092FD7DD0B9BDB19D4E7069BBB4202D292
:104B7000059B002BE7D1139B002B0ED018001FF0D4
:104B800071FD069B381A834207D20023139AD25C28
:104B9000002A2ED0C2540133F8E7079B002B06D021
:104BA000069BBB4203D26B461B7F013F3B702368D1
:104BB00038009E19F61B099B013E1E601EE09A07F5
:104BC00010D1104A196891420CD1089A3900039209
:104BD0000B9A0292139A0192129A0092099A20F06B
:104BE000D1FF0BE0002322681370099A206813603C
:104BF00004E0079B0700002BD5D1D8E70DB0F0BD2E
:104C000096620300E4F202001300144A10B5040097
:104C1000934201D1012203E0114A934202D10322BF
:104C2000200018E00020072C17D10E4A1A40062A4F
:104C30000ED09A0711D11A680B4CA24208D00B4C27
:104C4000A24205D00A4CA24202D00A4CA24204D190
:104C50000A000720190009F0DBFD10BD8C270300B6
:104C600048270300070080FFA4130300242103004A
:104C7000D4F10200382B030030B5072402784160DC
:104C8000A243053C224302707F22039C05882240F8
:104C9000D400034A83602A402243028030BDC046CC
:104CA00007FCFFFF10B5072403782140A3431943F5
:104CB0007F230170049904880B40D900084B42609F
:104CC00023400B430380039B04685B05D90A054B13
:104CD00023400B430360029B8360059BC36010BDB0
:104CE00007FCFFFFFF03E0FFF8B50E00050014000E
:104CF000FDF70CFF330003272B433B420BD1BC4293
:104D000009D9A2083100280015F0FCF92300BB43A3
:104D1000ED18F6183C40002C04D022003100280089
:104D200029F087FA80220449D2008B58002BFCD04E
:104D3000FDF7DCFEF8BDC04600E00140F0B50D0017
:104D4000002785B0110003901E0028000F4B02229F
:104D500000970BF055F9A81C800021F086FD039BFD
:104D6000040003606B1E3D0003934360336883605F
:104D7000039B9D4207D20135AF00F05909F0B6FC04
:104D8000E719B860F4E7200005B0F0BDFFFF0000B0
:104D900030B585B003AB05001400080002AA01A9D4
:104DA00020F0DBFF019A164900238A4200D05310FD
:104DB00002984210884200D12A00002B04DA5B19C5
:104DC000D843C017034002E09D4200D22B00002AC6
:104DD00001DA521902E0954200D22A002360934280
:104DE00000DA13006360039B8B4205D0032B03D0D2
:104DF0005B10A360002001E00120A06005B030BD81
:104E000078F10200F0B587B0060015000C9F1B2852
:104E100003D1BA4212D000203FE0192808D01C2844
:104E20000CD13D0017000A001D261900130005E0F3
:104E30003D0017000A001A26190013000395BD4211
:104E400000D903971C00002302910193019B039A50
:104E500093421BD0029B0594049301CB02CC029396
:104E6000FCF79CF9002802D0019B0133EDE71B2ED3
:104E7000D1D0059B30001A68049B196809F0C8FC62
:104E8000074BC01A43425841C0B206E0BD4201D0B0
:104E900002D2C0E71A2EBED0012007B0F0BDC04636
:104EA00048270300F0B51E0085B0039018680D0078
:104EB0001700FCF7DBF87368019002930024022FBF
:104EC00018D90123B2682900FCF792FA0400032FD5
:104ED00010D029000123F2680198FCF789FA050037
:104EE00008E0039AA3000299D058FCF757F900286C
:104EF00008D10134A542F4D80549064822F0A5F8A6
:104F00000DF02FFD01206400204305B0F0BDC04628
:104F1000B7620300ACF6020070B505000C200C006F
:104F200021F0A3FC024B45600360846070BDC04665
:104F300018F402000022104B10491A6003001233CB
:104F4000FF3341185A701A7004338B42FAD10100B2
:104F50000300002209310833FF311A709A705A7029
:104F6000DA7004338B42F8D1C3237F229B00C254F2
:104F7000034A044B1A6070474401002011030000EB
:104F80005F640300100000200023F7B507001C0039
:104F9000A200BA18FF32517C7F2952D0927C651C46
:104FA0009B18DBB2EF2B2AD9EBB20193C1239B00F4
:104FB000FE187D2335000093009B019A934209DB84
:104FC000281D290004221DF0E7FF009B043D013B42
:104FD0000093F1E7002395007D19FF356B74AB74E6
:104FE000EB742B757D250234E4B2A5421DDB301D28
:104FF000310004221DF0D0FF013D043EF5E77D297C
:105000001CD8104A525C01210A4217D0C1237D26C8
:105010009B00ECB2FD18A64207DB281D29000422E4
:105020001DF0BAFF013E043DF5E77E23A200BA1849
:10503000FF32537400239374D37413750134E4B2B4
:10504000A6E7F7BD1164030070B5012240240F49A3
:10505000531EDBB29B00C318FF335D7C7F2D14D041
:105060004D5D254202D10132D2B2F1E75D7D7F2D47
:10507000F9D04D5D7F2DF6D9DD7D002DF3D06EB2D8
:10508000002EF0DB0135DD74EDE770BD70630300C9
:105090000300F7B500214B4A1333FF338218197010
:1050A00004339A42FBD1FC2300249C462200844412
:1050B00053B2002B01DA444A78E063461F69BC42D0
:1050C00005D37F23443292001354012078E06346D5
:1050D000DE68355D602D01D9203DEDB2611CC9B29D
:1050E0008F4220D0735C602B01D9203BDBB2232D93
:1050F0001CD1303B092B01D9344A57E00234E1B2CC
:105100008F4204D8FF2BF7D843700C00D0E7745CB3
:105110002500303D092DF5D80A256B430131303B80
:10512000E318C9B2ECE7232DE6D000230026F7B23E
:105130000197274FF75DAF4212D1264FF75D2A2F17
:105140000ED09F420CD1694693000979C318FF33F2
:1051500059744178013202341975D2B2E1B2D4E700
:105160000136512EE3D100231A4C1F5DDEB22A2FE7
:105170000CD1174FFF5CAF4208D19300C318FF3327
:105180005E74447801321C75D2B2BEE70133512BF4
:10519000EBD1114C493BE65CAE4204D0002B04D06D
:1051A000013BDBB2F7E7002B04D10C4A0C4B00208B
:1051B0001A6005E014004334A4000419A370A4E7A6
:1051C000FEBDC04612030000626403007464030065
:1051D000CE6203001F630300416503008264030085
:1051E0001000002010B51130084A0949FF3003783B
:1051F0007F2B09D002240457002C01DCCB5C00E09B
:10520000D35C43700430F2E710BDC046C1630300B5
:10521000F1640300F0B5002489B00090009AA30067
:10522000D3180293FF335D7C7F2D00D1CAE00220AA
:1052300065494A5D024201D10134C1E001200242C8
:105240004CD12218D2B203922A18D2B204925F4AE9
:105250007D27521952780592DA7C1B7D0692C12275
:10526000920094460793009B63441E000193039BA6
:105270009F4207DB301D310004221DF08DFE013FEF
:10528000043EF4E7009A9B00D3186A46127CFF3371
:105290005A746A46127DA61C9A746A46127EF6B249
:1052A000DA746A46127F1A75AB1CDBB20393474B64
:1052B0005D19AB787D250493029BFF33DA7C1F7D5B
:1052C0000292B5426DDB019B0422181D19001DF0EE
:1052D00063FE019B013D043B0193F2E72200013292
:1052E000D2B21300009844339B001B5C002BF6D015
:1052F000621C7F2B07D0C95C090702D4243B012B19
:1053000001D8D4B28AE7D3B203936B1CDBB2049307
:105310002E4B7D275B195B780593029BFF33DA7C6C
:105320001B7D0692C122920094460793009B634422
:105330001E000193039B9F4207DB301D31000422B6
:105340001DF02AFE013F043EF4E7009A9B00D318AB
:105350006A46127CFF335A746A46127DA61C9A7400
:105360006A46127EF6B2DA746A46127F1A75AB1C70
:10537000DBB20393154B5D19AB787D250493029B3B
:10538000FF33DA7C1F7D0292B5420ADB019B0422C7
:10539000181D19001DF000FE019B013D043B019307
:1053A000F2E7009BB6009E196B461B7BFF367374B9
:1053B0006B461B7C0334B3746B461B7A3775F374EE
:1053C000E4B22BE709B0F0BD70630300F1640300A1
:1053D000F0B5002687B00190019AB300D31802936C
:1053E000FF335A7C002A00D130E17F2A00D15BE1F3
:1053F0001020AE49741C895C014227D0DA7C7D25DF
:105400000492C1221B7D8906C90F0593019B1431AB
:105410009200E7B203919C18BD4207DB201D2100DA
:1054200004221DF0B9FD013D043CF5E7019BBF00DE
:10543000DF196B461B7BFF377B740023BB746B4605
:105440001B7CFB746B461B7D3B75B1E04E2A01D182
:10545000182602E04F2A23D11B26DA7C7D270292F0
:105460000D225A74C1221B7D92000393019BE4B26A
:105470009D18A74207DB281D290004221DF08CFD82
:10548000013F043DF5E7019AA300D3180022FF3342
:105490009A746A46127A5E74DA746A46127BB4E0D1
:1054A000502A01D11C26D8E77F20814334D0D97CF3
:1054B000002931D0E4B22100019844318900095C0F
:1054C000002929D1B11CC9B20391890041180D00EE
:1054D000FF35687C7F281FD0744F385C7F27B84326
:1054E0001AD0E97C002917D0C122019B92009E1896
:1054F000023F039BBB4207DC301D310004221DF03C
:105500004BFD013F043EF4E71F236B740023AB7493
:10551000EB742B7526005FE7741C172A13D1597B97
:10552000721ED2B2452901D11B3902E0392902D1BC
:105530000D3959738EE05D4A525C7F218A4300D158
:10554000B0E01222ADE0182A07D15A7B57498A5C95
:105550007F2A00D8A6E01322A3E0202A05D15A7B97
:105560003C2A00D09EE026229BE0482A09D15A7DA1
:105570007F2A03D04D498A5C92060FD44B225A747D
:105580000CE03C2A0AD15A7D7F2A00D18AE04749A3
:105590008A5C920600D585E03F2282E05A7C43492E
:1055A000895CC90704D5597B20294BD10C3A78E096
:1055B000029B741CFF335A7C352A06D15A7B3C4926
:1055C0008A5C52076ED510226BE02A2A1FD1C122B5
:1055D0007D26DF7C1B7D92000293019BE4B29D1827
:1055E000A64207DB281D290004221DF0D5FC013E40
:1055F000043DF5E7019AA300D3182B22FF335A7418
:1056000000229A746A46DF74127A1A7582E72C2A8D
:1056100018D1C1227D26DF7C1B7D92000293019B65
:10562000E4B29D18A64207DB281D290004221DF0C4
:10563000B3FC013E043DF5E7019AA300D318FF3304
:105640002D22DCE7452A04D0392A02D00136F4B2F3
:1056500060E732001100019843318900134B095C67
:10566000741C595C7F291DD901320199D2B2920074
:105670008A18FF32517C002909D05B5C7F2B11D93D
:10568000D37C002B0ED1029B1E22FF3309E0527DFA
:105690007F2A07D09B5C7F22934303D0029B613A11
:1056A000FF335A74E4B235E707B0F0BD706303000E
:1056B00011640300F7B500220427634E0090130025
:1056C000009944339B005B5C7F2B0DD00121F35C80
:1056D0000B4202D10132D2B2F1E713005B4C013B25
:1056E000DBB2002B03D100E00023022640E01900CA
:1056F000009844318900095C7F2902D0615C7F29D0
:10570000EDD952498C46009899004118FF314C7CE4
:105710007F2C0CD02020355D054203D06046045D0F
:105720003C4204D08C7C6508013464198C740133CC
:10573000DBB29342E7D1CDE7444F7F207C5C25006C
:1057400085433CD0591C0098C9B28C0004194120F3
:10575000FF34657C019484467F2D01D0785D8446BA
:105760004024785D204217D1123D012D08D90B004D
:1057700000999A008A18FF32517C7F29DCD161E0C0
:105780000233DBB2443300989B001B5CFB5C23427A
:10579000EDD0937C013B08E063465B0707D463468A
:1057A000DB07E4D5937CDC081B1B9374DFE7019BCC
:1057B0009B7B5A1C9B08D318019A9373D7E7082048
:1057C000214D695C014210D00133009AD9B28B009F
:1057D000D318FF335A7C7F2AC9D0BA5C3242C6D074
:1057E00006229A74013A9A73C1E734421DD01C0014
:1057F0000134E4B22100009844318900095C002999
:10580000F6D001337F291BD0104D695C314217D08F
:105810000099A4000C19FF34A17C49080131A1743E
:10582000917C4908013191740AE01020014206D0B0
:10583000517B795C314202D0917C02399174013301
:10584000D9B294E7F7BDC04611640300706303004A
:1058500070B50400FFF76EFB2000FFF719FC230072
:105860000022FC330100DA601A61904244D0260025
:10587000224D11362B68FF36934203D03100204869
:1058800000F056FC2000FFF7A3FD2000FFF7DCFB33
:105890002000FFF7A7FC2000FFF70CFF2000FFF718
:1058A000B9FCC42233009200A1181A78502A06D9F4
:1058B0007F2A07D0134A144B00211A601CE00433DE
:1058C0008B42F2D12B68002B02D010481EF02AFB2D
:1058D0002000FFF759FB2B68002B03D031000C4848
:1058E00000F026FC200021F01FFB074B0949186837
:1058F0001EF074FE41424141080070BD400100208D
:1059000099640300A864030010000020CE64030023
:10591000DE6403005F64030037B50400A06808F08C
:1059200035FF019000280ED06568074B9D4205D0D9
:1059300001AB00220121280008F0DEFDFBF7C0FDCD
:105940000028EBD001983EBD78F1020010B5034865
:105950000968FBF7C9FB024810BDC0468810030068
:1059600078F10200F0B50E00002485B011000700A8
:10597000039322000C4B300000940AF041FBB01C52
:10598000800020F072FF050007604660B44208D036
:10599000039BA700D85908F0A9FEEF19B86001349D
:1059A000F4E7280005B0F0BDFFFF000010B54A681D
:1059B000014922F005F810BD1DDA0300F0B58BB0E7
:1059C000079310AB10CB009001911B78062A11D8D9
:1059D000012A05D93F230B700B000133019301E02D
:1059E000002A02D0002301990B70012393428041C9
:1059F000404234E2009900290BDA019B01995F1CB7
:105A00002D230B70802109068C46009B6344009374
:105A100005E0019F002B02D0390001370B70019B7C
:105A2000FF210993009BC9051800084088421CD13A
:105A30002023079A4E211A401300009AF81C5402A2
:105A400008D149225A403A70462259405340797051
:105A5000BB7005E041221943534039707B70B97027
:105A600000230370019BC01AF9E1002C00DA062420
:105A7000501E019A0799BD1A20221143451B02911D
:105A8000672903D1002C12D1012410E0002B1DD175
:105A9000029B662B0DD1631C9D4200DCAC1E66236D
:105AA00003930023651C049305931E00EEE0002B76
:105AB0000CD1631D9D4200DCAC1F029B652B00D006
:105AC000D1E003933A3B00250493D0E0B14A9342DE
:105AD00071D8B149009814F0C5FE431E98410023C7
