:020000040000FA
:10000000004000203D640100796401007B64010030
:1000100000000000000000000000000000000000E0
:100020000000000000000000000000007D640100EE
:1000300000000000000000007F64010081640100F6
:10004000836401005D410100A9680100836401002F
:100050008364010000000000A19E01008364010090
:10006000814F000083640100A5A0010083640100AA
:1000700083640100836401008364010083640100E0
:1000800083640100056E0100836401008364010044
:1000900083640100B59D0100BD9C0100C9500000B2
:1000A000D95000008364010000000000000000003F
:1000B0000000000000000000000000000000000040
:1000C000054B0648033310B51B1A062B03D9044B06
:1000D000002B00D0984710BD080100200801002027
:1000E000000000000648074910B5091A8910CB0F17
:1000F0005918491003D0044B002B00D0984710BD6D
:1001000008010020080100200000000010B5074C85
:100110002378002B09D1FFF7D3FF054B002B02D02A
:10012000044800E000BF0123237010BD0801002037
:1001300000000000D0E50300094B10B5002B03D0F0
:100140000849094800E000BF08480368002B02D1B5
:10015000FFF7C8FF10BD064B002BF9D09847F7E713
:10016000000000000C010020D0E503000801002081
:1001700000000000144B002B00D1124B9D46402282
:1001800092029A1A924600218B460F461148124A53
:10019000121A22F0DFFD0D4B002B00D098470C4BBC
:1001A000002B00D098470020002104000D000B48D0
:1001B00021F054FF22F030FC200029002BF06AFDD2
:1001C00021F076FF00000800004000200000000041
:1001D0000000000008010020FC0900207D2602002C
:1001E000C4600561466187614146C161494601625B
:1001F00051464162594681626946C16271468160D9
:10020000124B1A6802601860002070470F4B1A6882
:1002100012681A6070470D4B1A68002A01D128F045
:100220005BFD506010681860D4681569566997695D
:10023000D1698846116A8946516A8A46916A8B4615
:10024000D16A8D4691688E4601207047AC08002027
:10025000F0B5456887B00393AB6805A81700029115
:10026000059326F061FD060005A826F05DFD032339
:10027000584333000933C018800027F0D9F904002F
:10028000094BAA6803606B6829004360059B0662FE
:100290009B1AC360039B08300093029A3B0002F054
:1002A00049FD200007B0F0BDE8E4020070B505008C
:1002B00088680C0028F017FC23000200024928007F
:1002C00025F0B9FB70BDC0464458030010B5024884
:1002D00027F076FAFFF79FFF9CF1020010B50400AB
:1002E000082027F0A5F9024B4460036010BDC0460A
:1002F000A0E40200F8B50400C0681D00002801D188
:1003000018602EE0200063692030834208D1154B2D
:10031000994206D01449154827F05FFAFFF77BFF92
:1003200019602000124E636811000830776873600E
:1003300005F07CF87760012806D00023E3600228EE
:1003400009D063691B680BE063691B682B60002B95
:1003500007D1E36005E0236A07339B00E418636874
:100360002B60F8BD8825030062580300E0F302000B
:10037000A408002013B501AB1400FFF7BBFF012850
:100380000DD0184C02281CD0019BA34228D0002B72
:1003900026D001AA0121144827F00CFA0DE0002C08
:1003A0000DD0200004F0C8FA104910F0A1F900287F
:1003B00005D00F490F4827F010FAFFF72CFF0198DE
:1003C0000FE0019804F0B8FA074910F091F90028FD
:1003D00001D10198F1E7019803F0D0FCA042F8D1D7
:1003E000002016BD882503009CF1020094F4020051
:1003F000985803002CEF020010B50C00022801D120
:10040000486800E0886808F06BFB05490200206836
:10041000FFF7B0FF002801D1FFF758FF10BDC0461D
:100420008825030010B500220149FFF7A3FF10BD86
:100430008825030013B5124C01AB124A2100FFF7C7
:1004400059FF012802D0022805D017E00E490F48B5
:1004500027F0C3F910E0019804F06EFA0C4910F08F
:1004600047F900280AD1019804F066FA094910F00A
:100470003FF9002802D10198FFF7CDFE200016BDFC
:1004800088250300ACEF0200985803002CEF02000F
:1004900094F402009CF1020073B501A90DF036FE40
:1004A000019B06001849502B1AD88020400027F0E5
:1004B000BFF8164C0500231DD8670023019A93420C
:1004C00003D0F15CE9540133F9E75B222800EA54D8
:1004D0000FF048F82B00002807D104340C49E067DE
:1004E0000C4827F07AF9FFF796FE5A1B0133591E84
:1004F00009789B29F9D12900074829F00FF8002332
:100500000434E36776BDC046B8580300A408002051
:10051000C7580300F0EE02009CED0200F0B58BB06E
:100520000600080011001A0010AB1F78344B05AD0F
:1005300001950093052304F003F89120000127F0B2
:1005400077F8304B304AD867059B476043702B796A
:1005500004A903702B7A040083702B7BC3702B7C5F
:10056000300013600DF0D2FD0025284B07000C2051
:100570001D6027F05DF8264B0600036013F0D4F9E8
:10058000B06013F0D1F9234B234A1860234B7060FD
:100590001D70234B11001D70224B30001D602B007D
:1005A00013F098F839002000049A29F021FC20006B
:1005B00011F052FA1C4B071E0393134E194D164CA3
:1005C0000AD112F095FF0F4B1848DF67184B1968D6
:1005D00027F003F9FFF71FFE0122164B1A7013F0E4
:1005E0009DF90028FBD1039B0433D8673368002BA7
:1005F00003D02968104823F0E7F920000BB0F0BDC4
:10060000ECE50200A8080020340100202C010020A5
:100610007CE502002801002088250300F307002064
:10062000F407002030010020A4080020F0EE0200B2
:1006300010000020F2070020DE58030000220D49C0
:1006400010B50B78DBB2934212D10B4A1478002C10
:1006500002D001240C701370084B1B78002B06D0BD
:10066000074A136820331360064B1A6800E082685B
:10067000100010BDF4070020F2070020F30700204F
:100680002C01002028010020D2235B005843144B8A
:1006900070B51A68000C904206D2124C22680132E2
:1006A00022601A68203A1A601F22040001260E4DAB
:1006B00094431A68944201D92E70FAE71F2303402D
:1006C0001A1D202A00D92022084C2468934203D204
:1006D000E51829710133F9E7054B186070BDC04674
:1006E0002C01002030010020F30700202801002009
:1006F00024010020F0B587B0039205910D9A03996B
:100700000500541A0CAA127820211000884305D045
:10071000302A05D00CAA0292012204E0224A00E00D
:10072000224A02921022019280221A4005D0E30F41
:100730001B195B10E71A1C0003E001210B4012D1CA
:100740001F00002C12DD2600019B0493B34200DD44
:1007500004966B68049A029928689847049BF61AD5
:10076000002EF1DC03E02700140000E00024039BCE
:10077000002B06D01A0005996B6828689847039BE0
:10078000E418002F0CDDE419019EBE4200DD3E009E
:100790003200029928686B689847BF1B002FF3DC72
:1007A000200007B0F0BDC04610590300FF580300F9
:1007B000F0B593B0069318AB40CB04901B780F00B4
:1007C00014000793CB070BD48B0703D1814B0A6826
:1007D0009A4205D0380004F099F9012740000743F8
:1007E00081231E4209D1079B302B06D11A9B1B9AED
:1007F000934200DA1A9200231B93380027F0D8FBAB
:100800000AAA130000280DDDB30703D52B231370AC
:10081000123B05E01300720704D520221A70192339
:1008200004AA9B18F20619D5022C04D130221A70A2
:10083000069A013210E0082C08D130221A70B20555
:1008400001D401330AE0069A0E3205E0102C05D1DE
:1008500030221A70069A17325A70023300220AA9FF
:100860001A705B1A0593B30600D52C320EAB0B93AE
:1008700010230C9300231B990D93012901DD4021C6
:100880000E4304A9CB756B4640251B7E3540039271
:10089000029313D00023009401930DAA3B000CA9EE
:1008A0000BA804F0BDFC037807002D2B79D104AA16
:1008B000D3750D9B0137013B0D9372E00AAB019399
:1008C00000943B000DAA0CA90BA804F0A9FC1B9BEB
:1008D0000700012B78DD0D9A934200DA13001A9A73
:1008E0009A4206DD0125D41A354004D025000024A3
:1008F00001E000252C0001239E43002C09D01F336A
:100900000093002301941A0033490498FFF7F2FE84
:10091000040030230793730621D5172104ABC918AF
:100920000B78002B0AD00023012200930192049837
:10093000FFF7E0FE1A9B2418013B1A93059B002B3E
:100940000DD0012301930023059A00930AA904986E
:10095000FFF7D0FE1A9B059A24189B1A1A931B9B2B
:10096000012B00DD1A931A9B0D9A0193079B390006
:10097000009304983300FFF7BDFE2418002D09D022
:1009800020230093002301951A0013490498FFF7D0
:10099000B1FE24180B980EAB984217D026F06FFECC
:1009A00014E01B9B012B0EDD0D9A1B9B934200DA7A
:1009B0001300172204A952181278511E8A419B185D
:1009C000059A9B188BE700252C00A4E7200013B0A4
:1009D000F0BDC046F0F6020005BE0300F0B506000B
:1009E000140000278DB00D002B78002B0BD1A942ED
:1009F0000DD26B1A04931A00306873689847049BF1
:100A00002900FF1803E0252BF1D00135ECE70B7826
:100A1000002B00D144E14B1C049320230025082225
:100A200004210893049B1B78002B1DD02D2B01D192
:100A30002C3B02E02B2B02D1293B1D4310E0202B45
:100A400001D10D430CE0212B01D1154308E0302BDF
:100A500003D000230A21069309E0402008930543B0
:100A6000049B01330493DDE70693013B3BE0049BC9
:100A70001B781A00303A092A08D8069A4A43D31834
:100A8000303B0693049B01330493F0E72E2B25D1D2
:100A9000049B5B782A2B06D0049B0A210133049324
:100AA0000023079308E0049B226802330493079213
:100AB000231D002A15DB0FE0049B1B781A00303A37
:100AC000092A08D8079A4A43D318303B0793049B56
:100AD00001330493F0E723001C0005E001235B428F
:100AE00001E01C0000230793049B1B786C3B5942D8
:100AF0005941049B5B1804931B780593002B00D18C
:100B0000CEE0642B00D18DE01AD8502B00D195E0B7
:100B100004D8453B022B00D8A0E0B6E0059B622B31
:100B200021D039D8582B00D0AFE0231D0993069B64
:100B300001950393089B029341230093313B87E087
:100B4000059B712B34D005D8672B00D886E0702B1D
:100B500074D09AE0059B752B59D0782B6ED0732BEF
:100B600000D092E037E0231D09932368002B07D0C3
:100B7000069B04220193089B4B4900932B0006E03F
:100B8000069B05220193089B484900932B003000E7
:100B9000FFF7B0FD3F187FE0231D099323680BA9E1
:100BA0000B70069B01220193089B00932B00EEE73C
:100BB000231D0BA92068099327F09FFB079B0100C9
:100BC000013301D10B9B0793069B079A0193089B66
:100BD00000932B00DBE7231D24680993002C0ED023
:100BE000079B013303D1200023F090FB0790069B65
:100BF000079A0193089B210000932B00C7E7069BEF
:100C000006220193089B2A4900932B00BFE7231D6E
:100C10000993069B01950393089B0293612300931C
:100C2000573B15E0231D0993069B01950393089BF1
:100C30000122029361230093573B0AE0231D09938D
:100C4000069B01950393089B029361230093513BFC
:100C500000222168300024F02CFE9BE70723073494
:100C60009C43230020686168083309931CF006FA4E
:100C7000079B011C0293069B059A0193089B300079
:100C800000932B0024F08AFE84E701220499306847
:100C900073689847013709940499099C0131A2E6C9
:100CA00038000DB0F0BDC046ED580300F258030007
:100CB000F858030010B54379012B03D1C06A26F020
:100CC000C3FD05E00B00C26A0249006B26F0F8FD87
:100CD00010BDC04650EA020010B54379012B03D184
:100CE000C06A26F0D1FD05E00B00C26A0249006B24
:100CF00026F0E6FD10BDC04640EA020010B543797B
:100D0000012B03D1C06A26F0BFFD05E00B00C26ACB
:100D10000249006B26F0D4FD10BDC04660EA020017
:100D200010B5024B3F2224F016FF10BD47650200AC
:100D300010B5024B912224F00EFF10BDA11E000041
:100D4000F7B50F0011001A00C38AC579868A01938E
:100D500000230400C3718382C382104B24F0FBFE86
:100D6000A368002B18D1E18A002908D0A38A002BA0
:100D700005D1206B26F036FB206B26F0C6F9A38A3E
:100D8000E28A3900200024F095FE6B1E9D416B46DF
:100D90009B88E571A682E382F7BDC046AD1A0000CC
:100DA000836870B504000D00002B09D111000548BF
:100DB00026F013FDA060200029000C3024F031FF44
:100DC00070BDC04658F40200F0B58DB06B4601927C
:100DD0001B79040043710123E16203610B780D006C
:100DE000012B02D0954A002144E0019B012B07D939
:100DF000836B0A001E68030001990833406BB047FB
:100E0000AB681800049328F04BFE63790490032B21
:100E10000FD109900C2109A828F05BFEA36B0200FA
:100E20009B680999606B9847A3686883002B00D082
:100E3000FDE0049828F034FE04900378002B24D0C1
:100E40000A3B0F2B1CD809A924F008FE099B772B1D
:100E500014D004D803220292312B18D008E0812B41
:100E600004D002220292992B11D001E001230DE05F
:100E7000734A04992000FFF793FFDDE0002305E0AB
:100E80000100704A2000FFF78BFF022302930498B1
:100E900028F006FE5A21049004A828F01AFE049DAA
:100EA0000390039B9D4200D1B6E004952B78432B21
:100EB00000D1ACE0392B01D0634ADAE705A928005C
:100EC00028F0F8FD03780600912BF5D128F0E8FD15
:100ED000059B9842F0D105A9300028F0EBFD03787E
:100EE00007000A3B0F2BE7D828F0DAFD059B060028
:100EF0009842E1D00378A02BDED128F0D1FD059BEC
:100F00009842D9D106A9380024F0A8FD300028F075
:100F1000CCFD9C21079007A828F0DBFD0100079875
:100F200028F0B2FD069B06002E2B1BD1012804D110
:100F3000079803780A3B0F2B01D9444A99E72669A1
:100F4000731C2361019B012B5ED909A924F086FD46
:100F5000A36B099ADB683100606B9847002853D176
:100F60003B4A86E72F2B13D1012803D1079803783A
:100F7000032B01D0374A7CE7019B012B44D9A36B9B
:100F8000676B1E6928F06CFD01003800B0473BE03C
:100F9000302B23D1012803D907980378032B01D0E4
:100FA0002D4A66E7019B012B2ED908A928F049FD9F
:100FB0000127079007980378032B01D0274A58E7A9
:100FC00009A928F03EFDA36B07905B69099A08996F
:100FD000606B01379847BE42ECD115E0019B012BB5
:100FE00012D9032800D967E7079B1800099328F056
:100FF00057FD0A9028F054FDA36B0B909F693200B7
:1010000009AB0699606BB847A368002B0FD1280085
:1010100028F046FD050044E76379012B04D9A36B52
:1010200002995B68606B9847A368002B04D020008E
:1010300004990C3024F0F5FD0DB0F0BD2C590300DF
:10104000505903005D59030085590300A859030056
:10105000C4590300D4590300F0590300155A030082
:1010600010B5024AFFF79CFE10BDC046375A030078
:1010700030B50B7885B005000C00002B01D1013490
:101080007CE0032B09D103A9200028F0DAFC0399A6
:101090000400286B25F0DCFF70E0012B07D14978B4
:1010A000023405296AD0006B02F0D6F866E0042B02
:1010B00007D14B788978006B0902194326F00DF8A7
:1010C00016E0052B19D14379042B02D02D49006B72
:1010D0000CE088784B780002184303A927F00DF93B
:1010E00003992D6B0CF07AFB0100280026F001F823
:1010F000200028F0D5FC040040E01A000A3A0F2A2C
:1011000009D803A9200024F0A9FC039904002800B1
:10111000FFF7D0FD32E0082B0CD103A9200028F006
:1011200086FC039B2A6A9B0004009958286B25F0D3
:10113000E0FF23E003AB02AA01A9200028F0E1FCB4
:1011400002990400286B02F03DF8019B0E4A9B00B7
:101150009B58002B05D10D4A21002800FFF720FEE7
:101160000BE0039A210028009847AB68002B04D0BD
:10117000EB68002B01D1029BEB60039C200005B0C3
:1011800030BDC0468825030058E60200545A0300CB
:10119000F0B517000A0087B00493531E9A410E0061
:1011A000050004993800059228F06EFC341E019069
:1011B00009D033780024842B05D102002100286B4C
:1011C00026F08EF93400019B0097013B0393059BA9
:1011D0000293009B049A93421DD0009B1B78842BA2
:1011E0000ED1002C06D1039A0299286B26F078F9CB
:1011F000009C05E0204A00992800FFF7D1FD39E066
:10120000009828F04DFC029B009001330293039B51
:10121000013B0393DDE7002C07D1019A059B94461F
:1012200063441900286B26F04FF9002E1BD0B442FE
:1012300005D1200028F039FC0022010001E0002245
:101240003100280000F01AF80DE0BC420FD1200058
:1012500028F02BFC00220100280000F00FF83800D5
:1012600028F01EFC0700049B9F42EED102E0002202
:101270003900F1E707B0F0BD6C5A0300F0B50B7808
:1012800017001A000A3A85B004000D000F2A0FD883
:1012900003A9280024F0E2FB03992000002F01D0CD
:1012A000022F02D1FFF718FDD9E0FFF703FDD6E0CA
:1012B0006C4A192B00D8CEE01A3B7C2B00D182E07F
:1012C00004DC252B76D0772B06D0C3E07E2B00D113
:1012D00087E0912B6ED0BDE002A9280028F0EAFB40
:1012E0000600022F03D001002000FFF7C1FE3000EE
:1012F00028F0D6FB0299060024F0A8FB002800D0B5
:10130000A8E03378922B14D1300003A928F0D2FB47
:101310000600300028F0C4FB039A0190904208D2E6
:10132000022F01D1019EF4E731002000FFF7A0FE5B
:10133000F8E73378A12B19D1022F04D1206B25F0C7
:1013400069FF206B0FE0300028F0AFFB01002000A8
:10135000FFF78EFE206B012F05D125F02FFF206BAC
:1013600025F0FFFE1DE025F014FF1AE0A22B71D13D
:10137000300028F09AFB03A924F070FB012F07D15D
:10138000206B25F011FF0399206B25F0C8FE08E0C3
:10139000022F02D1206B25F026FF0399206B25F048
:1013A000EBFE300028F07CFB029924F04FFB002874
:1013B00055D14FE0002F4BD103A9280028F07AFB2C
:1013C000039B02001BE003A9280028F073FB03998C
:1013D000060024F03BFB00283CD1002F38D135001B
:1013E00015E0002F34D103A9280028F063FB0399EE
:1013F000050024F02BFB021E03D03B003A0039000D
:1014000022E02B789A2B02D0030029001CE003A9CC
:10141000280028F04FFB060028F042FB03789D2BA4
:1014200002D100231A0006E09E2B06D103A928F062
:1014300041FB0200039B310006E0BE2B0AD028F0DE
:101440002FFB3200030000212000FFF7A1FE06E081
:10145000054A00E0054A29002000FFF7A1FC05B07D
:10146000F0BDC046865A0300B95A03009E5A0300D5
:10147000F0B50B788FB00A3B0400019103920F2B5B
:1014800000D9E4E0080028F00BFB0378912B00D092
:10149000DDE0019828F004FB0BA928F00BFB037892
:1014A00042780A3B1B021343AD2B00D0CFE028F05B
:1014B000F7FA03780500A02B00D0C8E028F035FB30
:1014C000002800D0C3E0280028F0EAFA0B9B9842DD
:1014D00000D0BCE0280028F0E8FA9C210C900CA871
:1014E00028F0F7FA01230C9E070030000D9328F036
:1014F000D7FA05000C90874210D028F0D1FA0C9052
:1015000087420DD00378032B00D0A0E00DA928F06E
:1015100098FA0C90874200D099E001E03500764EB1
:1015200033784833DBB2022B00D890E02B78483375
:10153000DBB2022B00D88AE00B9B1800049328F042
:10154000AFFA039A0290904201D1002302930D9BBF
:1015500027690593238B27830693638B0793E38B7C
:1015600008937B1C0393BB1C09936B469B89638385
:10157000A38BE3833B1D23612B780393032B03D0C1
:1015800029002000FFF774FD31002000FFF770FDF7
:10159000F91C206B25F053FEB91C206B25F024FDAF
:1015A000206B25F001FE002201992000FFF766FE66
:1015B00004992000FFF75CFD791C206B25F014FDD9
:1015C0000599206B25F044FD1221206B25F0E8FEE3
:1015D000206BF91C25F008FD039B206B032B05D025
:1015E00025F0ECFD206B25F0FEFD05E025F0DCFD8F
:1015F00029002000FFF73CFD059B1921002B00DA94
:101600001A21206B25F0CCFEBA1C0121206B25F09D
:1016100022FE6B461B8B23836B469B8B63836B463F
:101620001B8CE383029B002B03D019002000FFF7E3
:101630001FFD3900206B25F0D7FC206B25F0C8FD7D
:10164000039B032B56D0206B25F0C2FD52E0238B69
:1016500025690293638B6F1C0493E38B6783059367
:10166000AB1C0693A38B0198E383244B2B4323836A
:10167000EB1C236128F014FA01002000FFF7F8FCAE
:101680000600206B25F038FE3900206B25F0ACFCFD
:10169000A91C206B25F03AFE002201992000FFF7DB
:1016A000EDFD31002000FFF7E3FC0600206B25F084
:1016B00092FC002803D13900206B25F0C0FDA91C45
:1016C000206B25F091FC206B25F02CFE6B461B89CE
:1016D00023836B461B8A63836B469B8AE383039B4E
:1016E000B34203D031002000FFF7C2FC2900206B79
:1016F00025F07AFC0FB0F0BD3FC303000080FFFF70
:10170000F0B5170085B0040008000D0028F0C8F9F6
:101710003900060024F09AF9019000281DD02379A1
:10172000002B12D0E36A1E78002E0ED12000132168
:10173000FFF7C0FA29002000FFF79AFC33003200BF
:101740000121206B25F00BFF03E029002000FFF7AB
:101750008FFC206B25F03CFD56E033783B2B19D1F4
:10176000290001222000FFF789FD300028F09DF9B3
:101770004378811C4E3BDBB218260A2B01D8234A42
:10178000D65C2000FFF774FC3100206B25F008FECA
:10179000022235E03C2B2ED1300003A928F08AF933
:1017A00006000700039B9F4205D0380028F078F917
:1017B00001970700F6E701992000FFF759FC206B1D
:1017C00025F0F2FC002229002000FFF757FD019BC5
:1017D000B34219D0300028F063F9019B0500834221
:1017E00002D0206B25F0E0FC310000222000FFF742
:1017F00045FD2E00EBE731002000FFF739FC019A90
:1018000029002000FFF73AFD05B0F0BD2159030083
:10181000F0B589B004000D1E05910492009322D109
:101820008379002B25D0C36A02911E78012E21D125
:101830000521FFF73FFAE26A118D8D4210DAD06A76
:10184000EB00C3185878304208D05A880121206B29
:1018500025F03FFB002302211A0099E00135ECE757
:101860004E4A002121E09C2105A828F032F902907F
:1018700000E002930027059D03973E00019709E0D1
:10188000012328001E4328F010F90390280028F0B7
:1018900007F90500029BAB4256D02B78B82B08D134
:1018A000B73B1E42ECD03E4A29002000FFF778FAF1
:1018B00071E0B92B0BD1B73B1E4201D0394AF3E797
:1018C000022328001E4328F0F0F80700DEE7BA2BB9
:1018D0002CD1280028F0E9F8050028F0E1F8037879
:1018E000BE2B0BD120000622290024F0D7F9009B43
:1018F00028000133009328F0D3F8C8E72B780A3B7F
:101900000F2B01D9284ACFE707A9280024F0A6F811
:1019100005000799206B25F0E0FB29002000FFF768
:10192000A7FB019B050001330193B3E7019B002B4B
:1019300001D01E4AB8E729002000FFF799FB009B61
:10194000050001330093A5E7002E14D0039B002B64
:1019500003D1206B25F0D9FB03E003992000FFF7AA
:1019600087FB002F03D1206B25F0CFFB03E039006C
:101970002000FFF77DFB049B002B06D03300019A6B
:101980000099206B25F0F4FD05E03300019A0099E1
:10199000206B25F0E4FD09B0F0BDC046E55A030018
:1019A000035B03001A5B0300325B0300535B03001D
:1019B000F0B589B00400039103A8072128F089F845
:1019C0000027E36A01905E7E0398019B83424AD020
:1019D00005A928F06FF84021039003A828F079F8B2
:1019E00006A90500039824F039F8069B02902A2BDB
:1019F00019D185420DD9029828F052F8854208D1B4
:101A000007A9029824F02AF8079B2B2B07D02D2B2F
:101A100007D0254A00212000FFF7C2F920E0012667
:101A20001EE004261CE003992000FFF721FB01378C
:101A300003900398854208D007A924F00FF807996E
:101A40000390206B25F06BFBF3E70599280023F04A
:101A5000FDFF002804D1A07129002000FFF708FB3A
:101A6000059B0393B0E7180028F01FF8019B039033
:101A70001B78010032002000242B02D124F0A5F8AD
:101A800001E024F019FB0500013F06D300230121EA
:101A90001A00206B25F063FDF6E729002000FFF710
:101AA0001BF909B0F0BDC046755B0300F7B50A78B5
:101AB0000E0013000821293B8B43DBB20400002BEE
:101AC00002D10133C37163E013002A3B8B43DBB2C5
:101AD000002B5DD013000A3B0F2B1AD9282A10D1F6
:101AE00001A9300027F0E6FF070027F0D9FF019B8E
:101AF00098420FD027F0D4FF019B050098420AD1ED
:101B000008E0300027F0D1FF070027F0C9FF0500EB
:101B100001E03700002501A9380023F09FFFE37999
:101B2000002D02D02A78002A0AD1002B30D1E38A76
:101B3000002B2DD0174A31002000FFF731F927E0A4
:101B4000002B1ED0A38A01339BB2A382012B0CD1A0
:101B5000E18A206B002902D025F044FC01E025F049
:101B6000D4FA0021206B25F064FC29002000FFF747
:101B70007FFA206B019925F0B0FA206B25F065FC07
:101B800006E0E38A29000133E3822000FFF770FAC0
:101B9000F7BDC046935B0300F0B504000E00056975
:101BA00087B002936B1C0393AB1C03612900006B8D
:101BB000170025F07EFB200023F058FF31002000A5
:101BC000FFF756FA206B25F0B3FB691C206B25F05C
:101BD00036FB2900206B25F007FA206B25F00CFD61
:101BE0002669731C2361029B9F4200D191E038005B
:101BF00027F05BFF00230593236905000193013360
:101C000023610378002B0FD127F04AFF27F048FF0C
:101C1000029B834223D04C4A29002000FFF7C0F8E2
:101C2000A38B013BA3838CE007006A2B07D127F02D
:101C30003CFF070027F034FF05A923F00FFF206BBE
:101C400025F0B2FA39002000FFF712FA2121206BAB
:101C500025F0A6FB019A0021206B25F0FCFA280054
:101C600027F01EFF0700206B25F0B2FA0599002926
:101C700003D1206B25F0ACFA02E02000FFF72CF82E
:101C80000025206B25F0A4FA059BAB4209D02569FD
:101C9000206B6B1C2361290025F017FB200023F02B
:101CA000E5FE39002000FFF7E3F9059B0700002B54
:101CB00002D0206B25F03CFB206B25F05AFB059BE6
:101CC000002B19D00F21206B01F0C6FA2900206BE0
:101CD00025F08AF90F21206B01F0BEFA059920004A
:101CE000FEF7FAFF20000599FFF708F8A38B206B99
:101CF000013BA38325F0F5FA3100206B25F09FFA14
:101D00000199206B25F070F90321206B25F068F90B
:101D100069E7A38B206B013BA38325F0E2FA206BDC
:101D200025F06EFC0399206B25F05EF90C9B002BCF
:101D300003D019002000FFF79BF93100206B25F03C
:101D400053F907B0F0BDC046C15B0300F0B587B0E2
:101D5000039143790400012B3ED1C36A1B78002B09
:101D600003D11E4AFFF71CF836E0039B432103A86A
:101D7000019327F0AEFE02900398029B83422BD082
:101D800005A90B2723F06AFE02AB059DFF180390FF
:101D90003A002900E06A26F026FF3B780600002B77
:101DA00003D103780E4A042B0AD12900E06A26F0F9
:101DB00047FF002803D00378023B022B05D9094ACC
:101DC00001992000FEF7ECFFD6E7042333702900C9
:101DD000E06A26F048FFCFE707B0F0BDE05B030004
:101DE000055C0300265C0300F0B587B003914479DD
:101DF0000500012C2BD1019103A8432127F069FE96
:101E000002900398029B834221D005A90B2723F05F
:101E100025FE02AB059EFF1803903A003100E86AE8
:101E200026F0E1FE3B78002B08D10378012B05D08A
:101E3000084A01992800FEF7B3FFE2E70470310079
:101E4000E86A26F0F4FE0028DBD00470D9E707B07A
:101E5000F0BDC046445C030010B5438B0400002B6A
:101E600002D1054AFEF79CFFA38BE28B618B9A1A85
:101E7000206B01F00FFA10BD635C030010B5038BFB
:101E80000400002B02D1054AFEF78AFFA38BE28BE8
:101E9000218B9A1A206B01F0FDF910BD7B5C0300C9
:101EA000F7B50B7804001A000A3A0E000F2A08D87A
:101EB00001A9300023F0D2FD01992000FEF71EFF9A
:101EC00076E0912B3FD16946300027F0F3FD010009
:101ED0002000FFF7CDF803780500922B10D101A95F
:101EE00027F0E8FD0500280027F0DAFD019B070038
:101EF000984205D029002000FFF7BAF83D00F2E72C
:101F00002B78A12B0BD1280027F0CFFD010020005A
:101F1000FFF7AEF80500206B25F086F90CE0A22B48
:101F200041D1280027F0C1FD01A923F097FD0199B7
:101F30000500206B25F061F90099280023F086FD4B
:101F4000002830D034E0962B2DD1080027F0EDFD8D
:101F5000002828D1300027F0A8FD060027F0A5FDB5
:101F6000050001002000FFF79BFF280027F098FDE7
:101F700003789D2B1CD09E2B0ED101A927F09AFD32
:101F8000019B0500984213D020002900FFF788FF2D
:101F9000280027F085FDF3E7BE2B04D001002000C8
:101FA000FFF77EFF04E0034A31002000FEF7F8FE51
:101FB000F7BDC046905C0300F7B502260D00C16A6C
:101FC0000400097E314001D0344A5DE00191297856
:101FD00008000A380F2802D801A9280006E01A32A2
:101FE000914212D1280027F060FD01A923F036FDAF
:101FF000E279E36A002A04D15A8B01325A8301261E
:1020000035E09A8B01329A83F9E71A33994223D14A
:10201000E379002BD8D101272800E77127F085FD4F
:102020000326002823D1280027F03FFD0278E36A29
:102030000A3A0F2A04D81A7E280017431F7605E0B3
:102040001A7E280017431F7627F02FFD27F02DFD5D
:1020500001A923F003FD0AE0280027F026FD01A9CD
:1020600023F0FCFCE26A137E1E43167605260199D6
:10207000002911D06B46DF1C3A00E06A26F0B3FD60
:102080003B78002B05D1064A29002000FEF788FE88
:1020900002E0022346700370F7BDC046A85C03004F
:1020A000B75C030070B5C36A04001B780D00012BF8
:1020B00004D00C4A0021FEF773FE11E01100280045
:1020C00023F0C4FC002804D00F21206B01F0C4F8D9
:1020D00003E029002000FEF7CBFF206B25F052FA29
:1020E00070BDC046D05C030070B5C36A04001B78A5
:1020F0000D00013B012B04D9164A0021FEF750FECA
:1021000026E01100280023F0A1FC002804D00F21B4
:10211000206B01F0A1F818E02B78C22B11D1280018
:1021200027F0C3FC01002000FEF7A2FF206B25F082
:10213000E3F8206B0F2101F08FF8206B25F04CFAAB
:1021400006E029002000FEF793FF206B25F035FA0A
:1021500070BDC046EA5C0300F0B50D0085B0040018
:102160001100280023F072FC002804D00021206B0D
:1021700025F05FF979E02B78AF2B0BD1206B012193
:1021800025F057F929002000FEF772FF206B25F09B
:102190005CF96AE0AE2B60D1280027F086FC0500D0
:1021A00027F07EFC02900378B22B4CD103A927F0D4
:1021B00081FC039B0290984203D0992102A827F04A
:1021C00088FC2B78AF2B11D103990298266B27F04E
:1021D0005BFC411C300025F02CF929002000FEF7A3
:1021E00047FF206B25F031F9012704E0290020008A
:1021F000FEF73EFF0027029E039B9E4219D03378D4
:10220000310020000193FEF733FF019B0600002FF1
:1022100007D0AF2B01D0164A06E0206B25F015F948
:10222000EAE7AF2BE8D1134A29002000FEF7B8FDFA
:102230001BE0002F19D131000298246B27F024FCF9
:10224000411C20000FE02B780422AF2B00D0052288
:102250002900200023F022FD07E029002000FEF7DE
:1022600007FF0121206B25F008F905B0F0BDC0463D
:10227000035D0300265D0300F0B504000D0001239B
:10228000627111000361C56287B02A00006B00F023
:10229000CDFE6379012B02D100236B84AB84AE6841
:1022A00033781E2B07D1300027F0FFFB0100200000
:1022B000FEF7DEFEB9E02B78002B04D131002000C0
:1022C000FEF7D6FEA7E0012B1ED1300027F0E8FB79
:1022D00063790500012B07D100230100E3710C2273
:1022E000564B200023F037FC280027F0D9FB27F0BD
:1022F000D7FB01002000FEF7BBFE206B24F06BFE35
:10230000002800D094E086E0022B18D16379012BDD
:1023100007D100231422E3713100494B200023F040
:102320001AFC300027F0BCFB01002000FEF7A0FEE5
:102330002B7E5B0779D5206B24F04AFF6BE0033BD3
:10234000032B3AD8300027F0ABFB05A927F0B2FBEE
:1023500027F0A6FB67790390012F09D10B2202AB6E
:10236000D2183900E06A26F03EFC022303706F8326
:102370002B78032B04D10021206B25F040F80CE0D2
:10238000042B04D10021206B25F053F805E0052B28
:1023900003D10021206B25F070F801212000FEF709
:1023A00089FC0023059A009303993300200024F050
:1023B00078F92B78062B38D12DE06379012B06D1E3
:1023C00005AA0521280026F00EFC0223037005A9AA
:1023D000A86823F043FB0D212000FEF76BFC0C21C5
:1023E0002000FEF779FC2969206B24F076FE11218C
:1023F0002000FEF771FCA86827F052FB27F050FB85
:1024000001002000FEF734FE0521280026F0DBFB4A
:102410000378022B04D10F21206B00F01DFF04E094
:1024200042880521206B24F054FD206B25F0AAF88A
:10243000206B00F08DFE07B0F0BDC046D3620200F5
:10244000C7620200F0B51E000F0099B009AC002170
:102450000590150020003C2220F07CFC059B09978C
:102460005B6826712362059B186827F019FB27F02B
:10247000F7FA6062800025F0EDF80022059BA0626B
:1024800000951B681100200023F0FAFA24F08DFD5E
:10249000002302902063039300263300626A964271
:1024A00002D3002BF8D12CE0A268002AF9D1A16A4E
:1024B000B2005558002D16D06A69002A13D126F0B3
:1024C000B9FF6B7E6861012229002000042B02D134
:1024D000FEF77AFC01E0FFF7CFFE2369039A9A42E8
:1024E00000D2039301230136D8E70B9A002A00D0CB
:1024F000B4E00499139B8900CB58002B09D1049BAD
:1025000001330493129B0693069A049B9342ECD3E7
:10251000A4E00120197E014224D01C8D601EC00061
:10252000002C1FD00226D96A09184D78354211D0E7
:10253000002A17D050880F008446506816780690FD
:10254000557811CF11C262464A80069A0E704D70BE
:102550004A6007E0002A02D1012D00D10A00013CA7
:102560000838DDE7002200211A841A8D9446914232
:102570001DDAD86ACA0082181878072802D1546870
:10258000052C12D00138052804D81078002801D174
:10259000013010701078022803D0012450782042B6
:1025A00003D0188C441C1C8450800131DDE70021CD
:1025B0008C450FD0D86ACA0082181078032807D13A
:1025C00001245078204203D1188C508000191884BF
:1025D0000131EDE75E68002E91D00024328D079224
:1025E000220007998C421CDAF16AE0000918069172
:1025F000097800250339012911D8AC450FD0DF6ACD
:10260000E90079180F78042F07D106984768380039
:102610004F68B84201D14A8001320135EDE70134FB
:10262000DFE70020002A00D169E784450ED0DC6A8C
:10263000C10061180C78042C03D101254C782C4280
:1026400002D04C88A4184C800130EEE7598B92B22E
:1026500051185983198C52181A8450E7002603998F
:10266000029824F0A7FC3500129B04939E4210D3DD
:102670000B9B0393002B4FD0149B0CA8996823F05D
:10268000D0FA149B0C9A1B6909990B9801F004FC71
:1026900042E00B9B0493002BEAD1139B0493049A12
:1026A000B3009C58002C35D0637E042B19D1002D2B
:1026B00003D1039825F029FB0500002315932D4B2A
:1026C0000322210009A817931695FEF77DFB0B9BAB
:1026D0000493002B1ED10422210009A8FEF774FBED
:1026E00018E0029B0222210009A81593FFF7C4FD00
:1026F0000B9B0493002B04D10322210009A8FFF7B0
:10270000BBFD0B9B0493002B04D10422210009A8DC
:10271000FFF7B2FD0136A7E7029824F053FC002D25
:1027200002D0280025F002FB0024059827F007FAC4
:10273000139B1B685D69129B02939C420AD2139BF8
:102740000293029AA3009858002801D026F032FA8A
:102750000134F0E7139824F092FF0B99002902D07E
:102760000800FDF758FD0A00280026F06EFE19B09B
:10277000F0BDC046ACFA02000F221140030010B5B4
:10278000080003290ED817F0BFFC0204090D180039
:102790000BE00648002B08D1054806E0180025F09C
:1027A0002AFC02E0180025F041FC10BD482A030075
:1027B0008C2A0300002805D0012809D18B685B0012
:1027C000184306E08B680348002B02D1024800E062
:1027D00000207047482A03008C2A030000228168E9
:1027E000F0B5CB0F094C5B185B100E199A420BDA4F
:1027F000C568B11A940089002C196D5827682560A6
:10280000C46801326750F1E70148F0BDFFFFFF3FA8
:102810008825030070B583680D00416804008B4271
:1028200012D3C900C06824F019FF63680A495A002E
:10283000A3686260D21A013352189B00E0609200D4
:10284000C018002120F086FAA368E268591C9B009A
:10285000A16002489D5070BDFFFFFF3F8825030027
:10286000F8B5070016004C10836803D5E418E2435E
:10287000D2171440A34200D21C000C4D380029008E
:10288000FFF7C8FFAC46BB6809495A1E5B189B009E
:102890001D1FF968944204DA4859013AC8502B00C8
:1028A000F6E7A4000E516046F8BDC0468825030037
:1028B000FFFFFF3F70B50025040085601021C06850
:1028C00024F0CCFE04232900E0606360102220F095
:1028D00041FA014870BDC0468825030030B50C00A0
:1028E00085B0104B02AD04310093013802230195ED
:1028F00001F026FE23680C4C996801290FD9D8688D
:102900000A4B029AC91889004118A24200D100223C
:102910002D79074B002D00D1064B24F036F920000D
:1029200005B030BDB8E9020088250300FFFFFF3F76
:102930008C2A0300482A0300F8B50C680B00A16834
:102940000200002905D11A491A4824F046FFFDF774
:1029500062FC2068012A01D05A6801E0012252423B
:10296000002302F0ABF9E36886009F19A3683D6875
:10297000013B1A1AA360E368311D59189200380010
:1029800020F09CF90021A368E0689A00115061686A
:1029900004290BD95B00994208D949088900E068ED
:1029A00024F05CFE6368E0605B0863602800F8BDAB
:1029B000455D03004CF0020007B500900191022034
:1029C000694624F042F9694601900220FFF7B4FFFE
:1029D00000480EBD8825030070B50E000D490500A6
:1029E000002422F057FFB3689C420ED2002C03D083
:1029F0000949280022F04EFFF168A300012259582E
:102A0000280001F0B3FF0134EDE72800034922F06C
:102A100041FF70BD2FAF0300595D0300C38B03005E
:102A200070B5032604000D000E4028D1174B0A682C
:102A30009A4224D183688A6899184368994210D9C8
:102A400004318900C06824F009FEAA68A368E06028
:102A50009B181A1D9B006260C0181022310020F0E4
:102A600079F9A368E9689800E3681818AB689A00D8
:102A700020F0E6F8AB68A268D318A36003E0290051
:102A8000200024F0EBF8024870BDC04600E90200C7
:102A90008825030010B50400102024F0C9FD044B64
:102AA00084600360034B43600023C36010BDC046D5
:102AB000481303006D6B02000B4B70B505000360FB
:102AC0000C000800042900D204206860AC6080007B
:102AD00024F0AEFD6A68E860121BA40092000019A1
:102AE000002120F037F970BD00E902007FB50D002C
:102AF000160012282AD004D8052807D007282BD082
:102B000057E00300193B042B41D952E00322002374
:102B100032409A424ED11300284932688A4249D144
:102B2000AB68B268981824F0B1F80400AB68E968A3
:102B30009A00C06820F084F8A868E368800018183C
:102B4000B368F1689A0020F07BF81EE011002800BD
:102B5000FFF766FF2B002DE003A9100002F014F828
:102B60000023984226D0039A9A4200DA0393AB6876
:102B70000398584324F08AF8C36804000093AA68B5
:102B8000039B0421E86824F0C0FE230012E09307B1
:102B90000DD10A4B12689A4209D1B36800938A6832
:102BA000F368C96801F010FC054B002802D1054B01
:102BB00000E00023180004B070BDC04600E9020028
:102BC000482A03008C2A0300F0B5040087B01700E0
:102BD0000326002A1BD10E4012D1544B0A689A4298
:102BE0000ED103AA806801F0B5FB0499039BA2688B
:102BF000E0685D1A521A8900920041189B007CE03F
:102C00000491022003A90394FFF796FE8AE0042AA8
:102C10002CD1314220D1454B0A689A421CD103AADB
:102C2000806801F097FB002805D103AAE168A0683D
:102C300024F07EFE77E0039B0498C01A24F026F867
:102C400005008368E1689A00039BC0689B00C9186F
:102C50001FF0F6FF280066E000230A002068A16844
:102C600002F02CF8E3688000C0585CE00E4055D1BB
:102C70002E4B0A689A4251D103AA806801F06AFB80
:102C8000BA680398049B15180193ED1A002D22DDF4
:102C9000A368E9186368994207D98900E06824F0BD
:102CA000DDFCA368E0605B196360039BA268E668D3
:102CB000E818D21A990080007118920030181FF09D
:102CC000FDFF039BF9689800E3681818BB689A0039
:102CD0001FF0B6FF1EE0E3688000F9681818920044
:102CE0001FF0AEFF0499B868A268039FE368521A08
:102CF0003818890092005918800018181FF0DEFF5C
:102D0000A368AA00E818E36880005242181831004E
:102D100020F020F8A3685D19A56003E03A002000C8
:102D200023F0F5FF024807B0F0BDC046A82103001C
:102D300088250300F0B5150042688FB094460693CD
:102D40008369CA6803938B68826063445A1C42603B
:102D50001A78040001929A1C4260DA1C5F78426083
:102D60009A78059104921A1D4260DB78934A029387
:102D700003001833C360039B1C309B189B00C218D0
:102D80000C33226100211A0007931FF0E3FF149A0D
:102D9000AB00D3180B93039B049ADB1B08939B1A7D
:102DA00005339B00E3181E1D01220199AF420ED28C
:102DB000114202D12B003A002BE01E00149BB900F7
:102DC000E81B591804F0D0F93D00706027E011426B
:102DD00002D01E007A4B7360069B002B1FD1019B13
:102DE0001B071CD4029BFA1A954211D3D91B8B00E6
:102DF0009C462A00BA4212D261469300581805999F
:102E00000132081807990069CB1AE3189861F1E7B5
:102E10002B006C496C4800F0D1FFFDF7FCF9002253
:102E2000954208D0149907989300C958C31AE3181B
:102E300099610132F4E7069B002B03D1019B1B072C
:102E400000D493E00223019A1A4000230A920793C8
:102E5000002A04D0069826F0A9F8079030600026D2
:102E6000A3680B9D0993069B9E4227D0049B0022DA
:102E7000FB189C462968624514D2099B900018589B
:102E800081420DD1039B013B9B1A9B00E318DA6939
:102E9000002A02D0CA084D4964E06A68DA610AE093
:102EA0000132E8E70A9B002B01D1494962E06A68D8
:102EB000079826F0B4F801360835D4E7089B029845
:102EC0009A1D029B9200D91CA218059B043289000E
:102ED00059181300002808D01D68002D01D10D6875
:102EE0001D60013804330439F4E7029B9B00D218BB
:102EF000039B06339B00E31804339A4208D2043242
:102F0000111F09680029F8D19A1A9210314929E055
:102F1000089B099A9D00BB00D318651906930026EB
:102F200010E0029905980431890008580699B30009
:102F30000430C95806F0E6FB00280DD04368AB61A9
:102F40000136043D049B9E421FD2AA69002AF7D194
:102F50000821019B0B42E4D1F619099BB600F258F7
:102F60001D49D208184800F029FF56E7049B002BA2
:102F700004D01A49144824F030FC4EE7019B9B070B
:102F800003D5049826F012F8306065680DA8256016
:102F90000D9523F0C9FE2E180136731E1D78FF2DE6
:102FA00009D0039B013B5D1BAD006519E8690FF07B
:102FB00083FAE861F0E766600FB0F0BDFDFFFF3F08
:102FC000180603005C5D0300E0F30200955D03005A
:102FD000C45D0300ED5D03001F5E03004F5E030050
:102FE00070B51500040023F000FF2A0002492000FC
:102FF00023F0ABFE70BDC046CD6D020070B54379C5
:103000000D000024032B06D9836A074C9200E41AB2
:10301000C369D358E418032123F0D8FE4470241266
:103020000570847070BDC046FD7F0000F7B50023B9
:103030000400617183608371E260036101330F00FA
:1030400015004361032906D80121836949429A008A
:10305000C0691FF07FFE0023A36223622A8C6B8C61
:10306000D3180122002B00D01A00384E2000310066
:1030700023F06BFEAA8C3100200023F066FEE3688B
:103080002000197E23F09BFEE3682000997E23F048
:1030900096FEE3682000197F23F091FEE36820008C
:1030A000997F23F08CFE042F07D1636A226A3100D6
:1030B0009A1A200023F049FE03E00221200023F0A9
:1030C00072FE31002A69200023F03FFE3100EA68D9
:1030D000200023F03AFE00262B8D9E420BDAEA6A8E
:1030E000F300D3181A78032A03D19978200023F02B
:1030F0007CFE0136F0E7FF21200023F076FE042F4E
:1031000022D10022688BAB8BC01882421CD00021D8
:103110002B8D0193019B99420DDA0127EE6ACB00BA
:10312000F3185E783E4204D05E88B24201D15B68FB
:1031300002E00131EEE702230626DB003343666B33
:1031400091008B510132E0E7F7BDC046A76D020048
:1031500013B543790400012B2ED08268002A03D0D6
:103160001649174822F067FC0021200023F027FEB3
:103170006379032B13D1226AD01C9843A36A20627F
:103180006062E362C01824F065FAE3682063588B3C
:103190009B8BC018800024F05DFA60630CE0042B68
:1031A0000AD1E068636AE26A216B9A18037E009391
:1031B0004069636B0AF0D4F913BDC046765E030024
:1031C00050E60200F7B5224B0600A8331B680191B8
:1031D000022B3BD844698C4238D2836A02690C1BAB
:1031E0009D1A23002B432DD00095062C10D81F2D9F
:1031F00001D91F2300932700032C00D903270121A5
:10320000300023F0D0FD009A7B011343037015E0DA
:103210000F2D01D90F2300930E4B27009C4200D99C
:103220001F000221300023F0BEFD70223B090099EF
:103230001340F03A0A43134303704770009BE41BAA
:10324000ED1ACEE7B36A3361019B7361F7BDC046E7
:10325000A4080020FF07000070B50D000121040044
:1032600023F093FD0F2D05D0102D05D010210E2D2C
:1032700007D102E0112100E01221200023F0B5FD6A
:1032800004E0034A1721200023F04EFE70BDC04623
:1032900034050300F8B506000D00141E124F11D1BD
:1032A000110023F072FD80231B021D4203D0322146
:1032B000300023F09AFD2A0035213A403000FFF714
:1032C0009DFE0FE03A000A404621FFF797FE80235B
:1032D0001B021D406A1E9541ED012C43E1B23000F6
:1032E00023F083FDF8BDC046FF7FFFFF73B51600D6
:1032F0000D4A0B0054681568012804D94C68250054
:10330000022800D08D6801A918680AF0FFFE0100AC
:103310002C20019A0023FF3003F0A0FE2B00310087
:10332000220005F07BFC76BDA4080020F8B5214DF5
:103330002E687368012B3BD9B1685C1E0A5D0A2AAE
:1033400036D1002C03DD621E885C0A2801D12200E0
:1033500005E01400F5E7885C202802D101329A428A
:10336000F9D3002C0BDD501C834208D1601E0028CD
:1033700005D001380F5C0A2F1AD0202FF7D0CB18B8
:10338000023B1B78141B3A3B59425941A40864186C
:10339000013C0DD3084F04223900300025F06DF9AF
:1033A0000421380011F0B6F92B6904332B61EFE7E3
:1033B000F8BDC04638010020D5DE030010B520223C
:1033C000002102481FF0C6FC10BDC046EC080020DA
:1033D000084B10B5426818600020986018750138D5
:1033E000D86008005A601A61996127F094FEFFF7CF
:1033F0009DFF10BD38010020F8B503780500002BB3
:103400001DD00F4CA06C002804D0290020F03AFFFA
:10341000002814D0280020F079FF471C380024F041
:1034200014F9061E0BD03A0029001FF009FC054BC9
:10343000054A1968043B99609A42FAD1A664F8BD1E
:10344000A408002004090020E8080020F0B5BE4BC5
:10345000050018689E68426885B001921C00002E25
:1034600000D0C9E06B1E042B1ED825F06FF96368ED
:10347000984200D165E1012D00D109E1022D0BD068
:1034800012E00023A360412D39D0422D30D0432DCE
:103490001BD0442D00D0EAE023696268934200D833
:1034A0005EE1002701261CE1032D00D149E1042D36
:1034B00006D1206821694368994200D3E0E0FCE02E
:1034C000052D00D1EFE0062D06D123685D68236944
:1034D000AB42AD416D4227E10B2D07D1019B226923
:1034E0002068991A25F0C0F9002503E10E2D04D1BA
:1034F000E368002B00DBA1E032E1102D04D1E3688A
:10350000062B00DC8DE02BE1152D0BD123696268C1
:1035100061689A1A206825F0B5F923696268002568
:103520009E1A19E10D2D0AD1884827F0F4FD206874
:1035300025F03EF96368C018FFF75EFF12E11B2D0E
:1035400002D10123A3600BE1082D01D07F2D1BD1F7
:1035500021696268914200D802E1002320688668F0
:10356000B518ED5C202D08D101339D188D42F7D39D
:103570000126032B02DD033600E00126891B320001
:1035800025F080F90127ACE0092D29D16368226973
:10359000D11A226890686E4AC01803AB00F078FD1B
:1035A000061E00D1DCE00025431C0BD1A06927F0EA
:1035B000B2FD63682269D11A22689068C01811F0C0
:1035C000A9F897E023692068E918039B01355A1C84
:1035D00003921A7825F036F9AE42F3D1350089E02E
:1035E0002B00203B5E2B00D9BAE02A00216920681D
:1035F00025F031F901257DE0012E07D104224F2D60
:103600006DD002225B2D6AD0002268E0022E33D1F9
:103610002A00303A092A00D933E703221D759A603F
:103620009EE05A1C4B4913339B005958002900D186
:1036300096E020686368E26043600FE02068013B29
:10364000E36062684368991A25F00EF9E368002B7D
:1036500006DB12333F4A9B009958206825F0C4F8D6
:1036600063682269D61A22685568ED1A74E0482DFD
:103670000ED0462D74D116E0032E29D17E2D02D016
:1036800000252F001EE01B7D312B01D0372B05D1EB
:103690000025236962682F009E1A14E01A00FB219E
:1036A000343A0A4206D1002723683E005D68236948
:1036B000ED1A08E0332BE3D1FBE6012225F0E2F816
:1036C000002501272E000023A3609E420ADC0FE0A4
:1036D0000022042E03D1462DE5D0482DD8D09A6083
:1036E0003EE00025300011F039F823699E1B266169
:1036F000002F19D02368019A5B689A4204D91300FD
:103700002269981A11F03AF8226823695168906882
:10371000C91AC01810F0FEFF236858682369C01A40
:10372000401B11F01BF808E0002D19DD236829006B
:1037300098682369C01810F0EDFF23695D192561B1
:103740000EE02E000EE0C0463801002006AD03005A
:1037500050E60200A40800200127002EC2DCC9E7C1
:1037600001267642300005B0F0BDC046F7B500280E
:1037700005D13A4A3A493B4822F05DF96BE00D68C1
:10378000280001F0D9F843680600EF2B04D16D68DA
:10379000280001F0D1F8060000233349DA00505820
:1037A000A84203D18A1851682E480AE00133612BE0
:1037B000F4D12E4B2B4C9D4201D09E4204D12000CF
:1037C0002B4922F067F846E02A49200022F033F91D
:1037D0000021280001F0E4F872682749200022F057
:1037E0002AF9264B9E4203D1280024F021FF0CE049
:1037F000234B9E4200D03500A86B00282BD08307B6
:1038000029D1204B02689A4225D125F01BFC0025C6
:10381000061E20D073689D421DD2B268EB00D318FB
:103820001F68002F15D05B6817492000019322F014
:1038300002F90021380001F0B3F81449200022F009
:10384000FAF80021019801F0ABF81149200022F0AC
:10385000F2F80135DEE70F48FEBDC046A25E030068
:103860002586030050E6020088EA0200A43803001F
:1038700019630300356303003D6303001C14030058
:103880009C280300C8180300D7DE03004D63030023
:1038900007AD03008825030070B506000D00002861
:1038A00011DD002906DD154816F0D6FC01248642FC
:1038B00013DC11E00100C020000616F0CDFC01244D
:1038C00085420ADB08E0002909DDC020000616F069
:1038D000C3FC0124864200DB0024E4B20BE0002498
:1038E000A04208D00100054816F0B6FC012385422D
:1038F00000DB231CDCB2200070BDC046FFFFFF3F91
:1039000010B50400102023F093FE044B8460036084
:10391000034B43600023C36010BDC046481303003F
:10392000C576020013B50400080001A909F07AFF6A
:10393000002C07D0012C0BD1019923F010FF40007F
:10394000204306E0019B0348002B02D1024800E01F
:10395000002016BD482A03008C2A0300F0B585B06C
:103960000400080003A9150009F05CFF0600002D03
:1039700006D10300039A3249200022F05CF85CE093
:1039800001000022039BC3180093009B8B420ED9B9
:103990000B78272B04D0223B58424341DBB201E095
:1039A000002301220131002BEFD0272703E0272736
:1039B000002A00D0053F234D3A002900200022F0C4
:1039C0003AF80195009BB34232D9300023F094FEBF
:1039D0000500300023F0ABFE0600AF4202D13A00F2
:1039E000194921E019495C2D0FD02B00203B5E2B9B
:1039F00002D82A00019917E015490A2D05D015496A
:103A00000D2D02D0092D04D11349200021F042FFD1
:103A1000D8E7FF2D02D82A00104905E0104B2A00F4
:103A200010499D4200D91049200022F004F8C9E74E
:103A30003A000199200021F0FEFF05B0F0BDC0461C
:103A4000F5840300FB840300FA840300FE84030072
:103A50000185030004850300078503000A85030030
:103A6000FFFF00001185030018850300F7B51F0054
:103A700008AB0C0016001D78FB0702D57F100197DC
:103A80000EE001A9380001F07FF8002808D13800C5
:103A900024F027F81F4902001F4800F08FF911E0B9
:103AA000019BA019002B1ADA00213F26013884421D
:103AB0000AD9002900D00193002D28D117491848B0
:103AC00000F07CF9FCF7A7FB0278B243802A01D012
:103AD000012101330138002BE9D1013018E0002B1E
:103AE00015D000223F21844205D3002A00D0019343
:103AF000002D0DD1E2E722788A43802A01D10134DA
:103B0000F9E7002B03D00134013B0122EBE7200051
:103B1000FEBDC0461F850300E0F302004785030099
:103B20004CF00200F0B587B006000D00170000F061
:103B300003FF02A90400300009F074FE0600042F00
:103B40004ED1AB0735D1284B2A689A4231D105AB0B
:103B500004AA03A9280025F04DFC059B234FBB4276
:103B600004D0032B02D0224805F0A2F8039B3500B5
:103B7000BB4207D00122310000922000029AFFF7D9
:103B800075FF0500049BBB4208D001223100009262
:103B90002000029AFFF76AFF010001E0029BF11882
:103BA0000E208D421DD84A1B2000290025F0B6FCAE
:103BB00017E00023029A009331002B002000FFF74A
:103BC00055FF0278012153B2002B05DA40231A4237
:103BD00002D001315B08FAE7012209F0E7FD00E0BD
:103BE000002007B0F0BDC046A821030088250300CF
:103BF0006185030000237F2803D8034B1B5C9B07D0
:103C0000DB0F18007047C0469285030000237F2811
:103C100003D8034B1B5C1B07DB0F18007047C04623
:103C20009285030000237F2803D8034B1B5C5B07AE
:103C3000DB0F18007047C0469285030000237F28E1
:103C400003D8034B1B5C5B06DB0F18007047C046B4
:103C50009285030000227F2808D8054B0132195CA9
:103C60000C23194202D15F38424242411000704792
:103C70009285030000237F2803D8034B1B5CDB06DF
:103C8000DB0F18007047C0469285030000237F2891
:103C900003D8034B1B5C9B06DB0F18007047C04624
:103CA00092850300F7B50D00110000220600009276
:103CB00028001F000B4B00F011FC102023F0C5FC66
:103CC000041E04D1084A094B094CDA6104E03900AA
:103CD000280003F049FAE060002326602000A3607A
:103CE000FEBDC046FFFF000018060300A408002028
:103CF000B408002010B5013810C903F035FAE060AF
:103D0000004810BD88250300F8B57F231700160072
:103D100004000D001F409A430AD17B1E012B07D8D7
:103D20000B68586824F0E4FA0100200021F0B2FD8D
:103D3000022F04D10F49200021F0ACFD01E0002F3B
:103D400012D1EB68002B02D05A68002A04D10A492C
:103D5000200021F09FFD0CE0012A05D10022996886
:103D6000200000F003FE04E03200E968200003F0C8
:103D70008FF9F8BD61D6030005BE0300C368034890
:103D80005A68002A00D098687047C046882503000A
:103D9000136810B51400002B0DD17D2902D1C36822
:103DA000136008E0044B02689A4204D1BA2902D198
:103DB000FFF7E4FF206010BD9CF102000EB470B567
:103DC000050087B0102023F040FC041E06D11B4BD9
:103DD0001B4A1D619861DA611A4C29E000210560D7
:103DE0008160012003F0C0F90B9B0500E060002B0F
:103DF0001ED02521180020F0D7F9061E08D10B98F7
:103E000020F084FA320001000B9809F0CFFC0EE09C
:103E1000102102A824F052FC0CAA0B9902A80192CE
:103E200005F0D4FE02A90848E56809F089FCA860FD
:103E3000200007B070BC08BC03B01847A4080020DD
:103E400018060300B40800209CED020010B5030022
:103E5000820708D1064A0168914204D1054AD9680F
:103E60000120914203D0044918000CF041FC10BD20
:103E70009C280300A53C00005CF2020010B5040081
:103E800000F05AFD034BC2689A4200D02469002317
:103E9000A36010BDA53C0000F7B516000193040017
:103EA0000F0000F049FD174BC2689A4200D0246908
:103EB000A568002D09D10C2023F0C7FBA0600028C5
:103EC0001ED00323E580A38010E0E388A18802339D
:103ED0008B420BDB033189000122280023F0CBFB4E
:103EE00000280DD0A388A0600333A380E288A168D6
:103EF00093000332E280019ACB181F605E609A60E3
:103F0000F7BDC046A53C000070B5150004000E00CA
:103F100000F012FD064BC2689A4200D02469A368E3
:103F2000002B01D1336001E0E28832602B6070BD6C
:103F3000A53C0000F8B503780400002B00D196E002
:103F4000402B01D1012026E04A4923F060FC0028E3
:103F5000F8D14949200023F05AFC0028F2D1474902
:103F6000200023F054FC0028ECD14549200023F028
:103F70004EFC0028E6D14349200023F048FC0028ED
:103F8000E0D14149200023F042FC0028DAD13F492A
:103F9000200023F03CFC002319001D001E002278A5
:103FA000002A52D0272A10D1002B01D0032B08D190
:103FB0006278272A05D1A278272A02D10234243A2E
:103FC00017E00122012B3ED813E0222A13D11A0058
:103FD0000427BA430AD16278222A05D1A278222A7C
:103FE00002D102343A0004E0002B01D0022B2AD186
:103FF0000222D31A27E05C2A09D16778272F01D043
:10400000222F04D11A00571EBA41A4181BE0002B1E
:1040100019D15B2A12D006D8282A0DD0293A574246
:104020005741F61B0FE07B2A0AD07D2A0AD05D3A61
:1040300057425741ED1B06E0013604E0013502E02E
:10404000013100E001390134A9E70132002E0FDC13
:10405000002D0DDC00290BDC033B934208D9013C09
:1040600023785C2B04D0002801D00A2B00D1002239
:104070001000F8BDE3AF03001286030018860300AA
:104080001C860300059903002086030072D70300F5
:10409000F0B505008BB04618049207930296029B78
:1040A0005C1EA54211D82078FFF7B0FD002801D092
:1040B0000294F4E72078FFF7B5FD0028F8D12378C3
:1040C0005F2BF5D02E2BF3D000E00295744B1D68CA
:1040D000029CB4420BD3029BE31A0193B44201D277
:1040E000002711E0002426002700039448E02378ED
:1040F0002E2BF0D00134ECE7FB000393EB68FA00C1
:104100009858002804D10137AB689F42F4D315E0DA
:104110000428F8D009A909F0F9FF019B099A0100C8
:104120009342F0D11A00029820F024F90028EAD135
:10413000EB68039A9B185868002801D10020ADE075
:10414000032318420AD10368564A934203D124F04C
:104150006FFA05000BE0544A934201D000F0ECFBEB
:10416000856B002DEAD0514B2A689A42E6D1631C38
:104170000293ADE7EA68E3009858002804D10134BF
:10418000AB689C42F6D329E00428F8D009A909F0CD
:10419000BDFF099B05900693069A019B9342EED8BA
:1041A00001001A00029820F0E5F80028E7D1019BF1
:1041B000002F0BD09E420DD3069A93420AD8059A3F
:1041C000F95CD25C914204D10133F3E7069E059F6E
:1041D00000E01E00039B01330393D0E7039B002BF9
:1041E000ACD0012B06D0019B9E4203D80023402671
:1041F00003930FE0019B079AFB181360019BF01AD1
:104200004CE0039BEA68DB009858002807D1039B29
:1042100001330393039BAA689342F2D338E0042846
:10422000F5D009A909F072FF099F019B0590BB42D7
:10423000EDD801001A00029820F09CF80028E6D181
:1042400033000F220F33DC171440E418241124012B
:10425000A41B012C00DC10343319DF19402F10D8B7
:104260000027BC4205DD1249049821F013FB0137F9
:10427000F7E70599049821F00DFB099BF61836190C
:10428000C5E7059A0B49049821F0D5FB099EBEE7C6
:104290000949049821F0FEFA012040420BB0F0BD1C
:1042A000A40800201C1403009C280300C818030065
:1042B000D8DE03002486030007AD030010B5040018
:1042C0000EF010F9074B0200A4331B68064907489B
:1042D00021F0B1FB0CF050FE012C01D10CF06CFE72
:1042E000034810BDA40800202886030050E6020001
:1042F0008825030010B50CF04FFB014810BDC046E7
:104300008825030010B50CF03DFB014810BDC046E8
:104310008825030010B586B0040005AB04AA03A9E4
:1043200002A804F0C3FD059B029A0193049B064971
:1043300000930648039B21F07EFB012C01D104F081
:10434000F1FD034806B010BD3D86030050E60200B3
:104350008825030030B585B003AB050014000800C4
:1043600002AA01A925F046F8019A164900238A42BB
:1043700000D0531002984210884200D12A00002B2E
:1043800004DA5B19D843C017034002E09D4200D213
:104390002B00002A01DA521902E0954200D22A00CD
:1043A0002360934200DA13006360039B8B4205D0C5
:1043B000032B03D05B10A360002001E00120A0606C
:1043C00005B030BD88250300F0B587B006001500A4
:1043D0000C9F1B2803D1BA4212D000203FE01928BD
:1043E00008D01C280CD13D0017000A001D2619001A
:1043F000130005E03D0017000A001A2619001300FB
:104400000395BD4200D903971C000023029101933C
:10441000019B039A93421BD0029B0594049301CB0A
:1044200002CC029300F020FB002802D0019B013354
:10443000EDE71B2ED1D0059B30001A68049B19684C
:1044400003F018FF074BC01A43425841C0B206E0C0
:10445000BD4201D002D2C0E71A2EBED0012007B063
:10446000F0BDC046482A0300F0B51E0085B0039099
:1044700018680D00170000F05FFA7368019002934E
:104480000024022F18D90123B268290000F016FC7D
:104490000400032F10D029000123F268019800F0D6
:1044A0000DFC050008E0039AA3000299D05800F023
:1044B000DBFA002808D10134A542F4D805490648A2
:1044C00023F08BF9FBF7A7FE01206400204305B021
:1044D000F0BDC04685860300F0EE020010B51C005A
:1044E00002AB1B78002906D0002B04D10F491048DD
:1044F00023F073F908E0A24208D1824214D00300ED
:104500000C490B48FFF75AFCFBF785FE824205D9A0
:10451000121A09490648FFF751FCF5E7844203D215
:10452000030022000549ECE710BDC046C45D03004E
:10453000E0F302005C5D03009C860300CE8603006E
:10454000F0B50025170087B00C9C0D9E03900491D8
:10455000059302950195059B9D423BD0039B9D428F
:1045600009D263689B0539D4019B049A01330193F6
:10457000AB00D05819E023680022D9000623380088
:10458000194305F0BFF800280BD16368DB0505D59A
:10459000226819491948FFF711FC23E0A36833602A
:1045A00014E0029B406801330293FF2263681340CA
:1045B000012B03D100F0EAFB307007E0022B02D19F
:1045C00000F0A4FA01E0032B00D1306001350C3477
:1045D0000436C0E7019B039A934205D20849074875
:1045E00023F0FBF8FBF717FE3B68029ADB0805494E
:1045F0009A42F4D307B0F0BDFD860300E0F3020059
:1046000014870300358703000379044AD35C002B29
:1046100000D183790248DB00C0187047F5070020FD
:10462000E0F5020010B50400FFF7EEFF2279036801
:1046300002490348FFF7C2FBFBF7EDFD5387030078
:10464000F0EE020010B50400FFF7DEFF034B4268F6
:104650009A4202D12000FFF7E5FF10BD2546000079
:10466000002803D001210379014AD1547047C04684
:10467000F507002010B5FFF7C7FF43680248181A76
:10468000431E9841C0B210BD2546000070B50C0015
:104690000500FFF7B9FFA04208D0436828009847FB
:1046A000034A2B79A41A034AE410D45470BDC046BF
:1046B000E0F50200F5070020F0B505008BB00868B2
:1046C0000C0009F00DFD049004A823F0A6F90027C2
:1046D000049B03900693069B1978002911D00800CB
:1046E000FFF7A0FA002806D006A823F0A8F9069B39
:1046F0001B78732B00D10120069B3F1801330693D2
:10470000E9E7380002F030FD0122009007A9606857
:1047100000F0B8FB079B089A05939B18019202933F
:10472000022D0AD9A06800F0F1F9002802DA089BEE
:10473000C01826D4059B1818059000240DE0290008
:1047400009F04CF8059B009A5D19A31C9B00059588
:1047500001349850049B01330493BC4230D2049B33
:10476000187800282CD0FFF75DFA0125002803D027
:1047700004A823F064F905000598029A43199A42A7
:1047800005D21149114823F028F8FBF744FD049B9A
:104790001B78732BD3D0009BA6009E190195019B1B
:1047A0000436002B0AD0049B05AA1978039803F05D
:1047B000B3F9019B7060013B0193F0E76419C9E70D
:1047C00000980BB0F0BDC04665870300F0EE020014
:1047D000F0B589B0039101921E0009F081FC0490AC
:1047E00004A823F01AF900250290B5424ED2049B8A
:1047F000187800284AD0FFF715FA0124002803D0C2
:1048000004A823F01CF90400039B019A1B199A4287
:1048100005D21F491F4822F0E0FFFBF7FCFC049B78
:104820001B78732B04D02D190E9BAF00DF191CE0F1
:104830000E9B6F1CAD00E858012205A900F022FB79
:10484000069B25009C4200D91D002A00059903986B
:104850001EF0F6F9039B621B581900211EF07AFA2C
:10486000039B3D001C1903940CE0002C0AD0049B10
:10487000A20052421978BA5803AB029803F0AEF97D
:10488000013CF2E7049B01330493AEE709B0F0BDAD
:1048900065870300F0EE0200F0B50E0089B00390CA
:1048A00001CE0F0023F0E1F84410210004A823F00A
:1048B0001CFF069D2200002128001EF04BFA039BDE
:1048C0000096013B2A1929003868FFF781FF04A9E7
:1048D000024808F035FF09B0F0BDC046402503008E
:1048E00030B50C0089B005000222606805A900F00F
:1048F000C9FAA06800F00AF9002809DA069B0393B8
:10490000C01805D509490A4822F067FFFBF783FC68
:104910000599069AEB1E8A18091820000C300090A1
:104920002068FFF755FF034809B030BD65870300D5
:10493000F0EE020088250300084BC2070BD4084A9A
:10494000084B0240062A06D003230340022B01D164
:10495000054B00E0036818007047C046F0F60200FF
:10496000070080FF9CED0200E012030070B50D000F
:10497000040016000DF0D2FD2800FFF7DDFF83686C
:10498000002B04D0320029002000984704E0426840
:104990000249200021F04FF870BDC0467687030021
:1049A00010B50A0001000248FFF7E0FF10BDC04645
:1049B00050E60200F7B5050008000E0022F011FFD6
:1049C00000282BD001AA69463000FFF79DFA009B12
:1049D000002B23D01649280020F05CFF009C154BCB
:1049E000E71EE418A400002F18DB019A12491319DE
:1049F0005B681259280021F01EF8019B1B199A6868
:104A0000002A04D10D49280020F044FF03E00C499E
:104A1000280021F010F8033F0C3CE4E731002800A7
:104A20000222FFF7A3FF2800044920F033FFF7BD5F
:104A30007B870300FDFFFF3F9F87030007AD030057
:104A4000B487030010B50400FFF776FF054B00693B
:104A5000984203D0431E9841C0B202E0200025F0E6
:104A600060F910BDED04010070B505000C000120D7
:104A70008D4241D0214B9D4201D100203CE0994222
:104A8000FBD001231D4204D01942F6D12B000D00AA
:104A90001C002A001A4B1A40062A05D0AA0711D179
:104AA000184A296891420DD12340062B05D0A3074F
:104AB000E3D1144B22689A42DFD12100280009F08B
:104AC000D5FA19E02340062BD7D0A30703D10D4B0D
:104AD00022689A42D1D02800FFF72EFF8369002B6D
:104AE000CBD0220029001B2098470028C5D0064BB8
:104AF000C01A42424241D0B270BDC0468825030070
:104B0000070080FF9CED0200482A0300104B10B5FF
:104B1000984219D00F4A0123904217D0184201D071
:104B2000184114E0830706D10B4B02689A4202D168
:104B300002F0D0FC0BE022F0D4FF08490200084844
:104B4000FFF73CF9FBF767FB002000E0180010BD01
:104B50008C2A0300482A0300F0F60200BD870300F8
:104B6000E0F3020010B5C30705D4830706D1054B57
:104B700002689A4202D123F07BFA01E0FFF7C6FFF8
:104B800010BDC046F0F602000F4B70B50D000124B9
:104B9000984202D100230B6012E00C4B984201D1E5
:104BA0000C600DE00300234001D0401007E08207B5
:104BB00007D1074A0168914203D102F08BFC2860BB
:104BC0002300180070BDC0468C2A0300482A030049
:104BD000F0F60200184B10B5984228D0174B9842B7
:104BE00027D0C30703D5401016F0D8FB23E00323DA
:104BF000184206D1124A0168914202D123F041FACB
:104C000019E00340022B09D10E4B0340062B05D0BF
:104C1000FF23DB05C018032398430CE022F061FF5B
:104C2000094902000948FFF7C9F8FBF7F4FA002028
:104C300001E0FE20800510BD8C2A0300482A0300F5
:104C4000F0F60200070080FFD5870300E0F30200C2
:104C500010B583070CD103680A4CA34202D123F09C
:104C600070F90EE0084CA34202D122F049F808E0A6
:104C700022F037FF054902000548FFF79FF8FBF7D0
:104C8000CAFA10BDDC05030000E90200EF8703004B
:104C9000E0F3020013B50C0001A9FFF7D9FF019B57
:104CA000A34206D0220003490348FFF787F8FBF729
:104CB000B2FA13BD12880300F0EE0200F7B505004A
:104CC0000C0017001E00D30702D55710019710E003
:104CD00001A91000FFF758FF00280AD138006C68BE
:104CE00022F0FFFE2200030012491348FFF766F886
:104CF0001BE0019B002B08DA1B190193002E0AD040
:104D0000002B04DA0023019311E0002E03D09C4213
:104D10000DD201940BE0019B002B01DB9C4206D8D5
:104D20006A6806490648FFF749F8FBF774FA0198E4
:104D3000FEBDC0463F880300E0F302006388030025
:104D40004CF0020010B50400830710D10D4B02682F
:104D50009A420CD10C4B0340062B03D1C00823F020
:104D6000C2FA00E0806801234000184308E02000F8
:104D7000FFF7E2FD4369181E02D021000120984789
:104D800010BDC04640250300070080FF164B70B5DC
:104D9000040000209C4226D0144DAC4201D10120D9
:104DA00021E0134B00209C421DD001262640864264
:104DB00001D0601014E02000FFF7BEFD4369002B16
:104DC00008D0210030009847002803D0401B434200
:104DD000584107E02000FFF7B5FF0028DFD0013879
:104DE000431E9841C0B270BD8C2A0300482A0300BC
:104DF0008825030010B50400FFF7A4FF002809D19F
:104E0000200022F06EFE044902000448FEF7D6FF9F
:104E1000FBF701FA10BDC04679880300E0F30200F9
:104E200070B504000D001600FFF786FD036A002B25
:104E300005D03200290020009847002818D10D4DD8
:104E40002000002E04D122F04CFE0B49020005E0A8
:104E5000042E08D122F045FE020008492800FEF782
:104E6000ADFFFBF7D8F922F03CFE05490200F5E75B
:104E700070BDC046E0F302009A880300C5880300B5
:104E8000E688030010B522F042FE002805D1034950
:104E9000034822F0A2FCFBF7BEF910BD1389030002
:104EA000E0F302008022044B52001A600123034AFF
:104EB0001360034A1360704700E100E00C8C00406F
:104EC000008000408022054B5200DA67044BFF3A15
:104ED0005A600022034B1A607047C04604E100E0AC
:104EE000008000400C8C004070B501251D4B1E4C0D
:104EF00018601E4BE550C046FFF7E4FF1C4A1D4BEF
:104F0000E560E250002302211B4AC220A350043274
:104F1000A15049180832A1508021C12209039200F2
:104F2000A150053AFF21FF3AA3504024134B8000C3
:104F30001A588A43224380241A500C301A582406E7
:104F40001202120A22431A5004301A588A433F3977
:104F50000A431A50802212041A60802252041A60F6
:104F600070BDC0465401002000800040FC0F0000CE
:104F7000701700004C0500000405000000E100E08F
:104F800070B5224C224D636C002B0AD00023636461
:104F9000204B1B689847A822D200AB580001C018CC
:104FA000A850A36C1A4D002B0AD00022174B9A640C
:104FB000184B5B689847184A0001AB58C018A850B6
:104FC000E36C134D002B0BD00022104BDA64114B15
:104FD0009B689847A922D200AB580001C018A8507E
:104FE000236D0B49002B0FD00022084B0B481A658C
:104FF0000B4A8B581B188B500A4A136806331360F0
:105000008022094B12045A6070BDC046FC800040EB
:1050100000800040040000204405000070170000DC
:105020004C05000014070020FCE100E0F7B50191F9
:10503000032824D8134B8000C758C223124D9B006D
:10504000EF50012344192364A823DB00E6589C4653
:105050000E4BEB58D21A9219D61731000F260E407C
:10506000B218019912110A4E013281511201C12167
:10507000D318624689006F500020A35001E0012040
:105080004042FEBDC8F60200008000404C05000012
:105090000400002003280BD8074B8000C158C2230E
:1050A000064A9B00D150064A064BC250002001E040
:1050B000012040427047C046C8F602000080004010
:1050C000417B02000400002010B5024B1B6898478A
:1050D00010BDC0465401002010B50024054AA35855
:1050E000002B02D00021A15098470434102CF5D198
:1050F00010BDC04658010020074A89008B58002B7C
:1051000006D188508021054A49045160180001E009
:10511000012040427047C04658010020FCE100E0F9
:105120007FB54B680E005C102100684623F0DDFA65
:10513000029D0021220028001DF00CFE0121306894
:10514000014004D12B00220022F02DFF08E0431083
:105150002000042C00D904202A00002122F0E7FFBF
:105160006946024808F0ECFA04B070BD402503001F
:10517000F0B50C00002585B0110020001E00009540
:1051800002232A00FFF7AAF90120AC423FD0844253
:1051900028D1306820423AD103230340AB4203D1E7
:1051A0001C4A0168914232D01B4A0240062A06D0AE
:1051B000002B0BD10268194B92699A4206D103A9C0
:1051C00008F0A4FF002303991A0018E0032302004B
:1051D0001A40022A16D1FF22D2058018984302F005
:1051E00041F914E003A9306808F090FF04007068EA
:1051F000039FFFF78BFC2B0002003900200004F016
:1052000021F804E0FFF782FC01234000184305B0B9
:10521000F0BDC046F0F60200070080FFF1E6000096
:10522000F0B58DB0099214AA127804000B9215AA59
:1052300012780F000892DA0700D496E01800FFF702
:1052400065FC002305900793002803DA4342059389
:105250002D230793129B0026023B1E2B16D8534B7F
:10526000129A2020995C14F06DFF089BC5B2B342DE
:1052700004D0681C032114F065FF06001398002871
:1052800001D01FF043F80335AE1936183B68B3421E
:1052900004D2300022F0CCF920603E6023689F19D0
:1052A000069300237D1E2B70059B002B04D00B9BC7
:1052B0000A950A3B0B931DE03023023F3B7030E020
:1052C0006F1E3B70089B002B25D0059B002B28D020
:1052D000069BBB4225D20A9BDB1B032B09D16B46E5
:1052E00020229B181B78AF1E3B70069BBB4218D236
:1052F0000A973D000598129915F094F80F0005984B
:10530000129914F0A9FF3B0005903033092FD7DD27
:105310000B9BDB19D4E7069BBB4202D2059B002BFB
:10532000E7D1139B002B0ED018001EF0EFFF069B59
:10533000381A834207D20023139AD25C002A2ED057
:10534000C2540133F8E7079B002B06D0069BBB42F3
:1053500003D26B461B7F013F3B70236838009E19C8
:10536000F61B099B013E1E601EE09A0710D1104AF1
:10537000196891420CD1089A390003920B9A029253
:10538000139A0192129A0092099A22F0E3FD0BE01F
:10539000002322681370099A2068136004E0079BB9
:1053A0000700002BD5D1D8E70DB0F0BD3889030038
:1053B000F0F602001300144A10B50400934201D124
:1053C000012203E0114A934202D10322200018E097
:1053D0000020072C17D10E4A1A40062A0ED09A0731
:1053E00011D11A680B4CA24208D00B4CA24205D036
:1053F0000A4CA24202D00A4CA24204D10A00072061
:10540000190002F037FF10BD8C2A0300482A030060
:10541000070080FF9CED020040250300DC0503002F
:1054200000E902000048704790F70200F0B5836978
:1054300099B05A1E04925A1D9200821804320292A8
:1054400002009B001C320791D3180F210122039305
:105450000369019006A81A4009180A7003229343B1
:105460000A930CA8FAF7BCFE031E01D000F0BAFDA7
:10547000019A5568D468079A002A2CD02A785E2AA7
:1054800029D00798079300F0E6FC7B783A781B0256
:105490001343BA4A9B18FB186360EB780834236007
:1054A0000F267F210220012506AA2368B6180B4289
:1054B00000D1C3E20A9A013B5268024200D1B5E230
:1054C000220008C20523636014000A9B1F680A9B20
:1054D0000C3B0A933D00019B6F1C5D602B7818000C
:1054E00010385A2801D900F02DFD14F017FE5B008A
:1054F0005D0062002B0564002B05740083008900A9
:105500002B058B00A100B300C300D300E200F30021
:10551000F80000010F0124013501530164016D0100
:1055200081019A01A8012B052B052B052B05B6013E
:10553000B8014205BF01C501CF01D701E501F30163
:10554000FF012B052B052B050D023D02AE02AE021D
:10555000CB02E102E502F602F602CEFF2B052B0597
:105560002B052B052B052B052B052B052B050203E6
:105570001503270339034803510367037903910394
:10558000AF03C2037104A204C804B7042B05DA03F5
:10559000E503F003F903090425043C045804040559
:1055A00015052605764B00E0764B6360043400F069
:1055B0000DFD754BF9E77F216B785B06DB173A78B9
:1055C000DB01100052B2084003430137002AF6DB2A
:1055D0005B0001220CE000237F213A78DB01100000
:1055E00052B20840C3180137002AF6DB0622DB005E
:1055F0001343DAE70322FB1C93431F0008CFD4E7D1
:105600000023D2E700237F213A78DB01100052B259
:105610000840C3180137002AF6DB9B005B42029A60
:105620009858002800D056E25849594800F085FDA6
:1056300000237F213A78DB01100052B20840C318E2
:105640000137002AF6DB029A9B005B42985825F04E
:1056500010FCE6E700207F223B78C00119005BB216
:10566000114008180137002BF6DB251D02F0B0FBB6
:1056700000F061FC00207F223B78C00119005BB282
:10568000114008180137002BF6DB251D02F06EFBD8
:1056900000F051FC00217F223B78C90118005BB269
:1056A000104041180137002BF6DB206822F0BBFDCB
:1056B00030E200217F223B78C90118005BB2104024
:1056C00041180137002BF6DB220001CC02F0F4FC7C
:1056D00000F07CFC251D02F093FB00F02CFC251F44
:1056E000042221682868FFF79BFB00F05EFC002382
:1056F0007F213A78DB01100052B20840C31801370D
:10570000002AF6DB9B005B4200F030FC00237F2187
:105710003A78DB01100052B20840C3180137002A62
:10572000F6DB029A9B005B4221689858251F25F002
:10573000A2FB00F03BFC00207F223B78C001190057
:105740005BB2114008180137002BF6DB2168251FDA
:1057500002F06AFB00F02AFC00207F223B78C001A7
:1057600019005BB2114008180137002BF6DB2168E5
:10577000251F02F071FB00F019FCC0460280FFFFFC
:105780008C2A030088250300482A0300CC890300E3
:10579000DCF0020000217F223B78C90118005BB2D7
:1057A000104041180137002BF6DB231F1A682068D0
:1057B00002F0AAFC00E22200231F083A12682168C6
:1057C0001868FFF72DFB3EE100237F213A78DB01CB
:1057D000100052B20840C3180137002AF6DB029AC3
:1057E0009B00D31A1A68002A00D11DE7002241E06D
:1057F00000257F223B78ED0119005BB211404D1965
:105800000137002BF6DB029BAD005D1B286825F0FD
:1058100030FB002800D107E70021286825F02BFB8A
:10582000D4E300207F223B78C00119005BB2114015
:1058300008180137002BF6DB02F002FBC6E300205C
:105840007F223B78C00119005BB211400818013774
:10585000002BF6DB02F00CFBB8E32368A5E6236817
:10586000A360231F1B6863600834AFE3231F19681C
:10587000226821601A60A9E3221F1368216823604F
:105880002300083B1868106019609FE37B783A7822
:105890001B021343DB4A9B18FF1897E37E783B7883
:1058A000206836021E43FFF771FAEF1C251F2C00FB
:1058B000002800D18AE324E07E783B782068360215
:1058C0001E43FFF763FAEF1C251F2C00002800D0B1
:1058D0007CE316E07E783B78360220681E43EF1C9E
:1058E000FFF754FA002800D143E30AE07E783B78C2
:1058F000360220681E43EF1CFFF748FA002800D04C
:1059000037E3C14BF618E4E0260027682200380090
:105910001721083602F0D0FB38003200162102F0C1
:10592000CBFB00213200080022F06EFCAB786A78D5
:105930001B0213430A9AEF1C0C320A920A9AFB18B4
:1059400013600F220A9B251D059306ABD21813780E
:10595000190002231943059B0D435D6000230A993A
:1059600013708B60A0606FE125002668A74B083D8F
:105970009E4208D16660A6602A000021032022F022
:1059800043FC2E6012E3012131402CD07610231FFE
:10599000012E10D126001A680C3E05929B4A002168
:1059A0001A60032022606260320022F02DFC059B09
:1059B0003360032315E026002A68103E05921A681A
:1059C00000210692914A03202A601A602260320068
:1059D00022F01AFC059B069A336023000C3B1A60E8
:1059E00005232B60E8E02B682E602600103E236024
:1059F0003200032022F008FCFFF7C8F900280DD080
:105A00000122824B06A933600A9B5B6813400E3269
:105A1000521813700A9B0C3B0A9315E123683360FC
:105A20002300043C22680C3B1A60BFE20A9A5268C9
:105A30002A4032700A9A0C3A0A9238E5221F1768F7
:105A4000002B00D1B8E00C3CC0E27B783A781B0216
:105A500013430A9AEF1C0C320A920A9AFB1813603D
:105A60002B780A99403B584258410F22430006A820
:105A700012181078034323434B6000230A991370D4
:105A80008B60A3E22068FEF7E1F9251F002803D010
:105A9000FAF7BCFB2B682BE223685C4A2C0093428C
:105AA00000D193E25B10DBB2012B00D0F8E49DE162
:105AB000206802F04DFB2DE07E783B7836021E43D5
:105AC000019BEF1CDC60206802F06AFB002802D119
:105AD000043CBF197AE2606068E50A9B06A95A682F
